:100000000C9442000C945F000C945F000C945F0011
:100010000C945F000C945F000C945F000C945F00E4
:100020000C945F000C945F000C945F000C945F00D4
:100030000C945F000C945F000C945F000C945F00C4
:100040000C945F000C945F000C945F000C945F00B4
:100050000C945F0000000000000000001010101061
:100060001010100018181818181818001C1C1C1C48
:100070001C1C1C001E1E1E1E1E1E1E001F1F1F1FDE
:100080001F1F1F0011241FBECFE5D4E0DEBFCDBF70
:1000900010E0A0E6B0E0E6E1F8E002C005900D92C5
:1000A000A436B107D9F720E0A4E6B0E001C01D9264
:1000B000A636B207E1F70E9482010C9409040C9461
:1000C0000000982F907F9BBBD89ADA9AE9EFF0E076
:1000D0003197F1F700C00000DA98D898E9EFF0E026
:1000E0003197F1F700C00000F0E18F9FC0011124AB
:1000F0008BBBD89ADA9A89EF90E00197F1F700C0AC
:100100000000DA98D898E9EFF0E03197F1F700C0F5
:1001100000000895982F907F9BBBDA9AE9EFF0E0FA
:100120003197F1F700C00000DA98E9EFF0E031977D
:10013000F1F700C00000F0E18F9FC00111248BBBDC
:10014000DA9A89EF90E00197F1F700C00000DA98A1
:10015000E9EFF0E03197F1F700C00000089581E089
:100160000E948A000895623031F0633031F06130CE
:1001700029F4805C03C08C5E01C08C5A80680E94A8
:100180008A000895FF920F931F93CF93DF93660F1A
:10019000660F660F6064EC016894FF24F3F8F60EB6
:1001A000FE01049111E0160F862F0E948A00802F15
:1001B0000E9461002196612F1F11F2CFDF91CF9134
:1001C0001F910F91FF9008951F93CF93DF9385EABE
:1001D0009EE00197F1F700C000001BBA1BBA8AB37A
:1001E000806F8ABB8AB387608ABB80E38BBBDA9A55
:1001F000E9EFF0E03197F1F700C00000DA98E9EF9D
:10020000F0E03197F1F700C000008BBBDA9A89EF7C
:1002100090E00197F1F700C00000DA98E9EFF0E014
:100220003197F1F700C0000080E28BBBDA9A89EFCA
:1002300090E00197F1F700C00000DA98E9EFF0E0F4
:100240003197F1F700C0000088E20E948A008CE03C
:100250000E948A00C4E5D0E060E011E0160FCE01F4
:100260000E94C2002896612F1830B9F7DF91CF9114
:100270001F910895809160008CBF83B7806283BF17
:1002800083B7886483BF83B7826083BF089510BC3F
:1002900088E089B988E98AB986E880BD08955F9BBE
:1002A000FECF6CB170E080E090E00895CF93DF93D3
:1002B00020E030E048EC52E40E9426030E948A02CB
:1002C000EB01CB0164E670E00E94BB0380E3860F84
:1002D0000E9461008EE20E9461002AE030E0CE01BF
:1002E000B9010E94BB03C82FCB01B9010E94BB0317
:1002F000805D0E94610080E38C0F0E946100DF91AD
:10030000CF910895CF93DF93CDB7DEB72C970FB67B
:10031000F894DEBF0FBECDBF0E94E4000E94AF0084
:100320008FEF87BB0E943A010E94470186E0FE01E1
:100330003196DF01982F1D929A95E9F73696DF01E5
:100340001D928A95E9F700E010E0E12CF12CAA2437
:10035000A394B12C0F2EF0E68F2EF0E09F2EF02DFF
:100360006E01BDE0CB0ED11C66246A94712C0E94F4
:100370004F016623E1F38091640090916500892B21
:1003800071F4663709F4C1C0E1E0F0E0EC0FFD1F45
:10039000EE0DFF1D6083F70131967F01E8CFB0922B
:1003A0006500A0926400663711F3E7E0F0E0EC0F1F
:1003B000FD1FE00FF11F6083603219F00F5F1F4FC8
:1003C000D6CF1092650010926400CE0101960E9473
:1003D000E3038C01CE0107960E94E3039093630030
:1003E00080936200BC01601B710B072E000C880B10
:1003F000990B0E94C20227E73EEB4FE15DE30E94AA
:1004000026030E948A022091600030916100620FF1
:10041000731F70936100609360006F3F710531F04E
:100420002CF0709261006092600006C0772324F483
:10043000B0926100A0926000D4018C918CBF60E00A
:1004400080E00E94B30080E50E94610087E50E9481
:1004500061008DE40E94610080E20E9461008DE3F2
:100460000E94610080E20E946100B801110F880BB8
:10047000990B0E94C20220EE3FEF4FE35AE30E9425
:1004800026030E94560186E50E94610061E080E03B
:100490000E94B30089E40E9461008EE60E94610020
:1004A00080E70E94610085E70E94610084E70E9466
:1004B000610080E20E9461008DE30E94610080E2A1
:1004C0000E9461006091620070916300072E000C31
:1004D000880B990B0E94C20220EE3FEF4FE35AE3D4
:1004E0000E9426030E94560186E50E946100FE01DB
:1004F0003796DE01119611921D92EC15FD05D9F784
:1005000000E010E0E12CF12C32CFB0926500A09217
:1005100064002DCF0E9491026894B1110C942003C5
:1005200008950E94050388F09F5798F0B92F9927E6
:10053000B751B0F0E1F0660F771F881F991F1AF0CE
:10054000BA95C9F714C0B13091F00E941F03B1E011
:1005500008950C941F03672F782F8827B85F39F010
:10056000B93FCCF3869577956795B395D9F73EF467
:1005700090958095709561957F4F8F4F9F4F08950F
:10058000E89409C097FB3EF490958095709561952D
:100590007F4F8F4F9F4F9923A9F0F92F96E9BB27E3
:1005A0009395F695879577956795B795F111F8CF5F
:1005B000FAF4BB0F11F460FF1BC06F5F7F4F8F4FCA
:1005C0009F4F16C0882311F096E911C0772321F0C0
:1005D0009EE8872F762F05C0662371F096E8862F58
:1005E00070E060E02AF09A95660F771F881FDAF7AF
:1005F000880F9695879597F9089557FD9058440F61
:10060000551F59F05F3F71F04795880F97FB991F71
:1006100061F09F3F79F0879508951216130614062E
:10062000551FF2CF4695F1DF08C0161617061806BB
:10063000991FF1CF86957105610508940895E89496
:10064000BB2766277727CB0197F908950E943903C6
:100650000C94AA030E949C0338F00E94A30320F08C
:10066000952311F00C9493030C94990311240C948A
:1006700020030E94FD0270F3959FC1F3950F50E097
:10068000551F629FF001729FBB27F00DB11D639F44
:10069000AA27F00DB11DAA1F649F6627B00DA11DEA
:1006A000661F829F2227B00DA11D621F739FB00D90
:1006B000A11D621F839FA00D611D221F749F332700
:1006C000A00D611D231F849F600D211D822F762F99
:1006D0006A2F11249F5750409AF0F1F088234AF076
:1006E000EE0FFF1FBB1F661F771F881F91505040E2
:1006F000A9F79E3F510580F00C9493030C942003BE
:100700005F3FE4F3983ED4F3869577956795B79568
:10071000F795E7959F5FC1F7FE2B880F911D969582
:10072000879597F9089597F99F6780E870E060E0F2
:1007300008959FEF80EC089500240A94161617067A
:1007400018060906089500240A94121613061406C2
:1007500005060895092E0394000C11F4882352F025
:10076000BB0F40F4BF2B11F460FF04C06F5F7F4FDD
:100770008F4F9F4F089597FB072E16F4009407D0D4
:1007800077FD09D00E94CF0307FC05D03EF4909579
:1007900081959F4F0895709561957F4F0895AA1B8D
:1007A000BB1B51E107C0AA1FBB1FA617B70710F05C
:1007B000A61BB70B881F991F5A95A9F7809590958E
:1007C000BC01CD010895FC0188279927E894219167
:1007D0002032E9F3293010F02E30C8F32B3241F0EB
:1007E0002D3239F4689404C00E940104820F911DD7
:1007F000219120532A30C0F31EF4909581959F4F8C
:1008000008957AE0979F902D879F802D910D112458
:060810000895F894FFCFEB
:040816000A00B80B11
:00000001FF
