:020000040800F2
:10000000180400202501000885010008850100086A
:100010008501000885010008850100080000000036
:100020000000000000000000000000008501000842
:100030008501000800000000850100088501000816
:100040008501000885010008850100088501000878
:100050008501000885010008850100088501000868
:100060008501000885010008850100088501000858
:100070008501000885010008850100088501000848
:1000800085010008850100088501000800000000C6
:1000900000000000000000000000000085010008D2
:1000A0008501000885010008850100088501000818
:1000B0008501000885010008850100088501000808
:1000C00085010008850100088501000885010008F8
:1000D00085010008850100088501000885010008E8
:1000E0008501000885010008850100080000000066
:1000F0000000000000000000000000000000000000
:1001000000000000000000000000000000000000EF
:1001100000000000000000008501000885010008C3
:100120005FF808F180B582B000AF114B7B60114BD6
:100130003B6007E03B681A1D3A607A68111D7960E0
:1001400012681A603B680C4A9342F3D30B480C497F
:100150004FF000028842B8BF40F8042BFADB00F0F1
:1001600015F800F0D1FA00BF0837BD4680BD00BFCA
:10017000940F00080000002014000020140000204C
:100180001400002080B400AFFEE700BF80B500AFD0
:10019000174A174B1B6843F0010313601449144BB3
:1001A0005A68144B13404B60114A114B1B6823F0E3
:1001B000847323F4803313600D4A0D4B1B6823F4C2
:1001C000802313600A4A0A4B5B6823F4FE035360E2
:1001D000074B4FF41F029A60054B0022DA6200F0D1
:1001E0000DF8054B4FF000629A6000BF80BD00BF64
:1001F000001002400000FFF800ED00E080B500AF05
:1002000000F002F800BF80BD80B483B000AF0023CF
:100210007B6000233B60304A2F4B1B6843F48033E4
:1002200013602D4B1B6803F400333B607B68013384
:100230007B603B68002B03D17B68B3F5A06FF0D1E6
:10024000254B1B6803F40033002B02D001233B60D5
:1002500001E000233B603B68012B37D11E4A1E4B57
:100260005B6853601C4A1C4B5B6853601A4A1A4B0C
:100270005B685360184A184B5B6823F47C13536027
:10028000154A154B5B6843F498135360124A124B9E
:100290001B6843F08073136000BF0F4B1B6803F0B3
:1002A0000073002BF9D00C4A0B4B5B6823F003035F
:1002B0005360094A084B5B6843F00203536000BF78
:1002C000054B5B6803F00C03082BF9D100BF0C371A
:1002D000BD4680BC704700BF0010024080B489B0AA
:1002E00000AF786039600023FB6100233B6100238D
:1002F000BB610023FB6000237B610023BB603B6884
:10030000DB7803F00F03FB613B68DB7803F010033D
:10031000002B05D03B689B781A46FB691343FB61B1
:100320003B681B88DBB2002B44D07B681B687B6179
:100330000023BB6138E00122BB6902FA03F3FB60D2
:100340003B681B881A46FB6813403B613A69FB68AF
:100350009A4226D1BB699B00FB600F22FB6802FA20
:1003600003F3BB60BB68DB437A6913407B61FA69C6
:10037000FB6802FA03F37A6913437B613B68DB781D
:10038000282B05D10122BB699A407B685A6108E09D
:100390003B68DB78482B04D10122BB699A407B681B
:1003A0001A61BB690133BB61BB69072BC3D97B6889
:1003B0007A691A603B681B88FF2B46D97B685B68AB
:1003C0007B610023BB613AE0BB690833012202FA7A
:1003D00003F3FB603B681B881A46FB6813403B61D4
:1003E0003A69FB689A4227D1BB699B00FB600F22E8
:1003F000FB6802FA03F3BB60BB68DB437A69134016
:100400007B61FA69FB6802FA03F37A6913437B6143
:100410003B68DB78282B05D1BB69083301229A4061
:100420007B685A613B68DB78482B05D1BB69083390
:1004300001229A407B681A61BB690133BB61BB69C9
:10044000072BC1D97B687A695A6000BF2437BD4643
:1004500080BC704780B483B000AF78607B684FF693
:10046000FF721A807B6802229A707B680422DA701D
:1004700000BF0C37BD4680BC704700BF80B483B05E
:1004800000AF0346FB71084997F907305B09FA7919
:1004900002F01F02012000FA02F241F8232000BFFF
:1004A0000C37BD4680BC704700E100E080B586B0E7
:1004B00000AF4FF4004000F04FF90121042000F09C
:1004C00015FA01214FF4007000F010FA1223BB82DC
:1004D0000023FB750323BB7507F114031946274856
:1004E000FFF7FCFE01237B710023FB604FF46023C8
:1004F000BB6000233B6002233B7401233B713B46FE
:1005000019461F4800F02EFA02211D4800F0CAFBD0
:100510000123012201211A4800F034FB01230222A9
:100520000421174800F02EFB4FF4E041144800F07E
:10053000F3FA0121124800F067FA114800F080FA3E
:1005400000BF0F4800F08CFA0346002BF9D10C488D
:1005500000F09EFA00BF0A4800F0AAFA0346002BFA
:10056000F9D10121064800F0BBFA0121044800F04E
:10057000EDFA00BF1837BD4680BD00BF000801403E
:100580000024014080B586B000AF01214FF4003057
:1005900000F0CAF90121042000F0A8F907F11403C2
:1005A0001846FFF757FF0423BB821823FB7502236D
:1005B000BB7507F1140319461B48FFF78FFE08238C
:1005C000BB820423FB750223BB7507F11403194694
:1005D0001548FFF783FE3B1D184600F057FC4FF40B
:1005E00061437B6000233B8100237B810023BB812F
:1005F00000233B820C23FB813B1D19460B4800F076
:100600008BFB0121094800F05DFC62B6012240F23B
:100610002551064800F076FC2620FFF72FFF00BF8B
:100620001837BD4680BD00BF0008014000440040AF
:1006300080B483B000AF0346FB7100BF074B1B883B
:100640009BB203F04003002BF8D0044BFA7992B22E
:100650009A8000BF0C37BD4680BC70470044004004
:1006600080B586B000AF786000237B6179694B1C50
:100670007B617868164BA3FB0023DA0813469B00C6
:1006800013445B00C21AD3B23033DAB207F1180355
:100690000B4403F8102C7B680D4AA2FB0323DB08F4
:1006A0007B607B68002BE1D10AE07B69013B7B61C9
:1006B00007F108027B6913441B781846FFF7B8FF5F
:1006C0007B69002BF1D100BF1837BD4680BD00BF4C
:1006D000CDCCCCCC80B485B000AF786009E041F2DD
:1006E0005373FB6000E000BFFB685A1EFA60002BEA
:1006F000F9DC7B685A1E7A60002BF0DC00BF1437EF
:10070000BD4680BC704700BF80B582B000AFFFF728
:1007100039FFFFF7CBFE14210E4800F0E5FA03463F
:10072000FB80FB881846FFF79BFF7620FFF780FFD2
:100730001821084800F0D8FA0346BB80BB88184649
:10074000FFF78EFF2020FFF773FFC820FFF7C2FFDF
:10075000E1E700BF0024014080B485B000AF7860BD
:100760000023FB60094B5B68FB60FB6823F440439C
:10077000FB60FA687B681343FB60044AFB685360C4
:1007800000BF1437BD4680BC704700BF0010024058
:1007900080B489B000AF78600023FB610023BB61A7
:1007A00000237B6100233B610023FB604A4B5B68B5
:1007B00003F00C03FB61FB69042B07D0082B09D065
:1007C000002B2FD17B68454A1A602FE07B68434A93
:1007D0001A602BE0404B5B6803F47013BB613E4B27
:1007E0005B6803F480337B61BB699B0C0233BB61A4
:1007F0007B69002B06D1BB69394A02FB03F27B6897
:100800001A6013E0344BDB6A03F00F030133FB6023
:10081000324AFB68B2FBF3F3BA6902FB03F27B686E
:100820001A6003E07B682D4A1A6000BF2A4B5B68A0
:1008300003F0F003FB61FB691B09FB61294AFB69BB
:1008400013441B78DBB23B617B681A683B69DA4072
:100850007B685A60204B5B6803F4E063FB61FB69D3
:100860001B0AFB611F4AFB6913441B78DBB23B6127
:100870007B685A683B69DA407B689A60164B5B6814
:1008800003F46053FB61FB69DB0AFB61154AFB69FA
:1008900013441B78DBB23B617B685A683B69DA40E2
:1008A0007B68DA600C4B5B6803F44043FB61FB69D7
:1008B0009B0BFB610C4AFB6913441B78DBB23B6169
:1008C0007B68DA683B69B2FBF3F27B681A6100BFB0
:1008D0002437BD4680BC70470010024000127A00E9
:1008E00000093D00000000201000002080B483B00B
:1008F00000AF78600B46FB70FB78002B06D00949EF
:10090000084B9A697B6813438B6106E00549054BE8
:100910009A697B68DB4313408B6100BF0C37BD468F
:1009200080BC70470010024080B483B000AF786094
:100930000B46FB70FB78002B06D00949084BDA699F
:100940007B681343CB6106E00549054BDA697B6898
:10095000DB431340CB6100BF0C37BD4680BC704702
:100960000010024080B485B000AF78603960002389
:10097000FB600023FB727B685B68FB60FB6823F411
:10098000702323F48073FB603B681A683B681B7913
:100990001B021343FA681343FB607B68FA685A60D2
:1009A0007B689B68FB60FA68164B1340FB603B68F2
:1009B000DA683B689B681A433B685B795B001343CA
:1009C000FA681343FB607B68FA689A607B68DB6AAD
:1009D000FB60FB6823F47003FB603B681B7C013BFE
:1009E000DAB2FB7A1343FB72FB7A1B05FA681343F6
:1009F000FB607B68FA68DA6200BF1437BD4680BCD2
:100A0000704700BFFDF7F1FF80B483B000AF78609E
:100A10000B46FB70FB78002B06D07B689B6843F08D
:100A200001027B689A6005E07B689B6823F0010205
:100A30007B689A6000BF0C37BD4680BC704700BF22
:100A400080B483B000AF78607B689B6843F0080295
:100A50007B689A6000BF0C37BD4680BC704700BF02
:100A600080B485B000AF78600023FB737B689B681F
:100A700003F00803002B02D00123FB7301E00023E5
:100A8000FB73FB7B18461437BD4680BC704700BF24
:100A900080B483B000AF78607B689B6843F0040249
:100AA0007B689A6000BF0C37BD4680BC704700BFB2
:100AB00080B485B000AF78600023FB737B689B68CF
:100AC00003F00403002B02D00123FB7301E0002399
:100AD000FB73FB7B18461437BD4680BC704700BFD4
:100AE00080B483B000AF78600B46FB70FB78002BBE
:100AF00006D07B685B6843F480627B685A6005E0DF
:100B00007B685B6823F480627B685A6000BF0C37A7
:100B1000BD4680BC704700BF80B485B000AF786030
:100B200039600023FB607B689B68FB60FB6823F4F3
:100B3000E043FB60FA683B681343FB607B68FA683C
:100B40009A6000BF1437BD4680BC704780B483B044
:100B500000AF78600B46FB70FB78002B06D07B68FB
:100B60009B6843F402127B689A6005E07B689B688F
:100B700023F402127B689A6000BF0C37BD4680BC2C
:100B8000704700BF80B487B000AF78600846114658
:100B90001A460346FB700B46BB7013467B7000235E
:100BA0007B6100233B610023FB60FB78092B23D989
:100BB0007B68DB687B61FB78A3F10A0213465B006C
:100BC0001344072202FA03F33B613B69DB437A6972
:100BD00013407B617978FB78A3F10A0213465B002E
:100BE000134401FA03F33B617A693B6913437B6168
:100BF0007B687A69DA601EE07B681B697B61FA7842
:100C000013465B001344072202FA03F33B613B697E
:100C1000DB437A6913407B617978FA7813465B008D
:100C2000134401FA03F33B617A693B6913437B6127
:100C30007B687A691A617B689B6B7B617B691B0DA2
:100C400003F00303FB60FB68DBB2BA78D31ADBB2B4
:100C50000233DBB21A4613469B0013441F2202FAEA
:100C600003F33B613B69DB437A6913407B61FA78AC
:100C7000FB68DBB2B978CB1ADBB20233DBB21946C0
:100C80000B469B000B4402FA03F33B617A693B6914
:100C900013437B617B687A699A6300BF1C37BD464A
:100CA00080BC704780B485B000AF78600B46FB70A5
:100CB0000023FB600023BB607B689B6BFB60FB68D1
:100CC00023F44013FB60FB78013BBB60BB681B0552
:100CD000FA681343FB607B68FA689A6300BF1437B5
:100CE000BD4680BC704700BF80B485B000AF78605F
:100CF0000B46FB700023FB607B68FB60FA78FB68A7
:100D000013442833FB60FB681B689BB218461437FA
:100D1000BD4680BC704700BF80B58CB000AF786026
:100D200039600023FB620023BB6200237B62002347
:100D30003B620023FB617B68FB617B681B8A9BB283
:100D4000FB62FA6A4CF6FF731340FB623B68DB8878
:100D50001A46FB6A1343FB62FB6A9AB27B681A82EB
:100D60007B689B899BB2FB62FA6A4EF6F3131340D1
:100D7000FB623B689A883B681B8913439AB23B68C5
:100D80005B8913439BB21A46FB6A1343FB62FB6AFF
:100D90009AB27B689A817B689B8A9BB2FB62FA6AF3
:100DA0004FF6FF431340FB623B689B891A46FB6A80
:100DB0001343FB62FB6A9AB27B689A8207F10803CD
:100DC0001846FFF7E5FCFB692E4A934202D17B6986
:100DD000BB6201E03B69BB627B689B899BB21BB233
:100DE000002B0CDABA6A13469B0013449A001A448B
:100DF0003B681B685B00B2FBF3F37B620BE0BA6AF3
:100E000013469B0013449A001A443B681B689B00DE
:100E1000B2FBF3F37B627B6A1B4AA2FB03235B09F1
:100E20001B01FB62FB6A1B09642202FB03F37A6A63
:100E3000D31A3B627B689B899BB21BB2002B0CDAF6
:100E40003B6ADB003233104AA2FB03235B0903F049
:100E50000703FA6A1343FB620BE03B6A1B01323360
:100E6000094AA2FB03235B0903F00F03FA6A134349
:100E7000FB62FB6A9AB27B681A8100BF3037BD46BD
:100E800080BD00BF003801401F85EB5180B483B0A6
:100E900000AF78607B684FF416521A607B680022BE
:100EA0009A807B680022DA807B6800221A817B6846
:100EB0000C225A817B6800229A8100BF0C37BD4604
:100EC00080BC704780B483B000AF78600B46FB7085
:100ED000FB78002B08D07B689B899BB243F40053BE
:100EE0009AB27B689A8107E07B689B899BB223F466
:100EF00000539AB27B689A8100BF0C37BD4680BC14
:100F0000704700BF80B487B000AF78600B467B802D
:100F100013467B7000233B610023FB600023BB6012
:100F200000237B617B687B617B88DBB25B09DBB282
:100F30003B617B8803F01F03FB600122FB6802FA20
:100F400003F3BB603B69012B03D17B690C337B61ED
:100F500009E03B69022B03D17B6910337B6102E01E
:100F60007B6914337B617B78002B06D07B697A69BF
:100F70001168BA680A431A6006E07B697A691168E9
:100F8000BA68D2430A401A6000BF1C37BD4680BC15
:040F9000704700BFE7
:100F9400000000000102030401020304060708091B
:040FA4000204060835
:0400000508000000EF
:00000001FF
