:020000020000FC
:100000000FEF01BB00E007BB0FEF08BB4DE05DE267
:1000100069ED7CE08DE204E00EBF0FE50DBF7ED000
:100020000EEF02BB1ED07AD00FEF02BB1AD076D0F3
:100030000DEF02BB16D072D00FEF02BB12D06ED004
:100040000BEF02BB0ED06AD00FEF02BB0AD066D016
:1000500007EF02BB06D062D00FEF02BB02D05ED02A
:10006000DECF02BB162F252F342F1A95F1F72A95D4
:10007000E1F73A95D1F7089510E020E01A95F1F7ED
:100080002A95E1F7470F4D3308F04DE3580F513EE5
:1000900008F051EEC395C530B1F0C13031F0C23037
:1000A00059F0C33011F0C43039F0A5E26A1B613455
:1000B0005CF461E40C946400A7E26A1B613424F4EC
:1000C00061E40C946400C4E0089510E020E01A9507
:1000D000F1F72A95E1F7471B4D300CF44DE0581B22
:1000E0005D320CF45DE2CA95CF3FB1F0C33031F020
:1000F000C23059F0C13011F0C03039F0A7E26A0FB8
:10010000693D5CF469ED0C948D00A5E26A0F693DD0
:1001100024F469ED0C948D00C0E00895B299D5DF08
:06012000B399AADF089567
:00000001FF
