:100000000C942A000C943F000C943F000C943F0089
:100010000C943F000C943F000C943F000C943F0064
:100020000C9441000C943F000C943F000C943F0052
:100030000C943F000C943F000C943F000C943F0044
:100040000C943F000C943F000C943F000C94480229
:100050000C943F0011241FBECFE5D4E0DEBFCDBF1E
:1000600010E0A0E6B0E0E2EBF6E002C005900D92F1
:10007000AE36B107D9F70E942E030C9457030C94A7
:1000800000001F920F920FB60F9211242F933F93EF
:100090004F935F936F937F938F939F93AF93BF9390
:1000A000EF93FF93DF93CF93CDB7DEB7ECE4F0E0AF
:1000B00080E69AEE91838083E4E3F0E01082E5E34A
:1000C000F0E08FEF8083E7E3F0E080EF8083E8E308
:1000D000F0E08FE08083E3E3F0E08081882F90E020
:1000E00081709070009721F410926100109260006E
:1000F000E3E3F0E08081882F90E0827090700097B9
:1001000031F484E090E09093610080936000E6E336
:10011000F0E08081882F90E084709070009731F437
:1001200088E090E09093610080936000E6E3F0E067
:100130008081882F90E088709070009731F48CE077
:1001400090E09093610080936000E4E3F0E08FEF33
:100150008083E5E3F0E01082E7E3F0E08FE0808366
:10016000E8E3F0E080EF8083E6E3F0E08081882F31
:1001700090E08F719070009741F4809160009091B1
:1001800061009093610080936000E6E3F0E080817D
:10019000882F90E08F729070009749F480916000F2
:1001A0009091610001969093610080936000E6E376
:1001B000F0E08081882F90E08F749070009749F470
:1001C000809160009091610002969093610080930D
:1001D0006000E6E3F0E08081882F90E08F789070F7
:1001E000009749F48091600090916100039690938C
:1001F0006100809360008091600090916100843183
:10020000910589F080916000909161009093630066
:1002100080936200809164009091650001969093B4
:1002200065008093640084E190E090936100809386
:1002300060000E943B0180916400909165008830CD
:10024000910534F084E090E0909365008093640021
:10025000CF91DF91FF91EF91BF91AF919F918F91DE
:100260007F916F915F914F913F912F910F900FBEB2
:100270000F901F901895DF93CF93CDB7DEB7A7E30C
:10028000B0E0E7E3F0E08081806F8C93A8E3B0E01A
:10029000E8E3F0E08081806F8C93CF91DF91089547
:1002A000DF93CF9300D000D0CDB7DEB79A83898398
:1002B00089819A819C838B838B819C818730910576
:1002C00009F498C08B819C818830910554F58B810D
:1002D0009C818330910509F46DC08B819C818430B1
:1002E000910594F48B819C818130910509F452C071
:1002F0008B819C81823091050CF054C08B819C8154
:10030000009709F43FC0BDC08B819C818530910569
:1003100009F460C08B819C81863091050CF062C02D
:1003200051C08B819C818B30910509F483C08B81F6
:100330009C818C3091056CF48B819C818930910576
:1003400009F468C08B819C818A3091050CF06AC0E9
:1003500059C08B819C818D30910509F47BC08B81C4
:100360009C818D3091050CF46DC08B819C818E3009
:10037000910509F477C08B819C818F30910509F438
:1003800079C07FC0A2E3B0E0E2E3F0E080818F6358
:100390008C9377C0A2E3B0E0E2E3F0E08081866076
:1003A0008C936FC0A2E3B0E0E2E3F0E080818B6564
:1003B0008C9367C0A2E3B0E0E2E3F0E080818F6459
:1003C0008C935FC0A2E3B0E0E2E3F0E08081866658
:1003D0008C9357C0A2E3B0E0E2E3F0E080818D6649
:1003E0008C934FC0A2E3B0E0E2E3F0E080818D6740
:1003F0008C9347C0A2E3B0E0E2E3F0E08081876045
:100400008C933FC0A2E3B0E0E2E3F0E080818F672D
:100410008C9337C0A2E3B0E0E2E3F0E080818F6626
:100420008C932FC0A2E3B0E0E2E3F0E08081876725
:100430008C9327C0A2E3B0E0E2E3F0E080818C6718
:100440008C931FC0A2E3B0E0E2E3F0E08081896317
:100450008C9317C0A2E3B0E0E2E3F0E080818E6508
:100460008C930FC0A2E3B0E0E2E3F0E08081896703
:100470008C9307C0A2E3B0E0E2E3F0E08081816703
:100480008C930F900F900F900F90CF91DF91089564
:100490001F920F920FB60F9211242F933F934F93F9
:1004A0005F936F937F938F939F93AF93BF93EF93DC
:1004B000FF93DF93CF93CDB7DEB780916200909129
:1004C00063008431910509F442C0809164009091E9
:1004D00065008530910541F4809162009091630040
:1004E000909367008093660080916400909165000E
:1004F0008630910541F48091620090916300909361
:100500006900809368008091640090916500873055
:10051000910541F4809162009091630090936B008B
:1005200080936A0080916400909165008430910509
:1005300041F4809162009091630090936D008093EC
:100540006C0084E190E09093630080936200E2E3AA
:10055000F0E01082A8E3B0E0E8E3F0E080818F7E75
:100560008C938091660090916700992334F080917C
:100570006600909167000E945001A8E3B0E0E8E3B4
:10058000F0E0808180618C93E2E3F0E01082A8E3E8
:10059000B0E0E8E3F0E080818F7D8C93809168008B
:1005A00090916900992334F08091680090916900DE
:1005B0000E945001A8E3B0E0E8E3F0E080818062AF
:1005C0008C93E2E3F0E01082A8E3B0E0E8E3F0E02F
:1005D00080818F7B8C9380916A0090916B0099232E
:1005E00034F080916A0090916B000E945001A8E362
:1005F000B0E0E8E3F0E0808180648C93E2E3F0E037
:100600001082A8E3B0E0E8E3F0E080818F778C937C
:1006100080916C0090916D00992334F080916C0072
:1006200090916D000E945001A8E3B0E0E8E3F0E093
:10063000808180688C93CF91DF91FF91EF91BF9182
:10064000AF919F918F917F916F915F914F913F916A
:100650002F910F900FBE0F901F901895DF93CF939F
:10066000CDB7DEB7E1E3F0E08FEF8083E2E3F0E0C7
:100670001082A9E5B0E0E9E5F0E0808186608C9326
:10068000EEE4F0E084E08083A3E5B0E0E3E5F0E0B1
:1006900080818C608C93ECE5F0E081E08083ECE479
:1006A000F0E080E69AEE918380837894FFCFF8940F
:0206B000FFCF7A
:0E06B2001400140004000400050006000700F8
:00000001FF
