:020000040800F2
:1000000010040020CD0100082D0200082D02000878
:100010002D0200082D0200082D020008000000003B
:100020000000000000000000000000002D02000899
:100030002D020008000000002D0200082D0200081B
:100040002D0200082D0200082D0200082D020008D4
:100050002D0200082D0200082D0200082D020008C4
:100060002D0200082D0200082D0200082D020008B4
:100070002D0200082D0200082D0200082D020008A4
:100080002D0200082D0200082D02000800000000CB
:100090000000000000000000000000002D02000829
:1000A0002D0200082D0200082D0200082D02000874
:1000B0000109000861060008C90600082D020008B1
:1000C0002D0200082D0200082D0200082D02000854
:1000D0002D0200082D0200082D0200082D02000844
:1000E0002D0200082D0200082D020008000000006B
:1000F0000000000000000000000000000000000000
:1001000000000000000000000000000000000000EF
:1001100000000000000000002D0200082D02000871
:100120005FF808F180B483B000AF78600B46FB70D5
:10013000FB78002B08D07B681B889BB243F001033F
:100140009AB27B681A8007E07B681B889BB223F019
:1001500001039AB27B681A8000BF0C37BD4680BC91
:10016000704700BF80B483B000AF78600B467B80DF
:1001700013467B707B78002B08D07B689B899AB2F2
:100180007B8813439AB27B689A8109E07B689B89DC
:100190009AB27B88DB439BB213409AB27B689A8108
:1001A00000BF0C37BD4680BC704700BF80B483B031
:1001B00000AF78600B467B807B88DB439AB27B681C
:1001C0001A8200BF0C37BD4680BC704780B582B034
:1001D00000AF114B7B60114B3B6007E03B681A1D81
:1001E0003A607A68111D796012681A603B680C4A9F
:1001F0009342F3D30B480C494FF000028842B8BF3A
:1002000040F8042BFADB00F015F800F003FC00BF07
:100210000837BD4680BD00BF4D100008000000201B
:100220000C0000200C0000201000002080B400AF63
:10023000FEE700BF80B500AF174A174B1B6843F0BD
:10024000010313601449144B5A68144B13404B605C
:10025000114A114B1B6823F0847323F4803313601D
:100260000D4A0D4B1B6823F4802313600A4A0A4B86
:100270005B6823F4FE035360074B4FF41F029A6040
:10028000054B0022DA6200F00DF8054B4FF00062DA
:100290009A6000BF80BD00BF001002400000FFF860
:1002A00000ED00E080B500AF00F002F800BF80BDB7
:1002B00080B483B000AF00237B6000233B60304AF2
:1002C0002F4B1B6843F4803313602D4B1B6803F4E2
:1002D00000333B607B6801337B603B68002B03D1BC
:1002E0007B68B3F5A06FF0D1254B1B6803F4003396
:1002F000002B02D001233B6001E000233B603B6800
:10030000012B37D11E4A1E4B5B6853601C4A1C4BA5
:100310005B6853601A4A1A4B5B685360184A184B63
:100320005B6823F47C135360154A154B5B6843F4F8
:1003300098135360124A124B1B6843F0807313608A
:1003400000BF0F4B1B6803F00073002BF9D00C4A61
:100350000B4B5B6823F003035360094A084B5B684F
:1003600043F00203536000BF054B5B6803F00C03CE
:10037000082BF9D100BF0C37BD4680BC704700BFC9
:100380000010024080B489B000AF7860396000236B
:10039000FB6100233B610023BB610023FB60002362
:1003A0007B610023BB603B68DB7803F00F03FB61DC
:1003B0003B68DB7803F01003002B05D03B689B788B
:1003C0001A46FB691343FB613B681B88DBB2002BB9
:1003D00044D07B681B687B610023BB6138E001224D
:1003E000BB6902FA03F3FB603B681B881A46FB6893
:1003F00013403B613A69FB689A4226D1BB699B0076
:10040000FB600F22FB6802FA03F3BB60BB68DB43AF
:100410007A6913407B61FA69FB6802FA03F37A692F
:1004200013437B613B68DB78282B05D10122BB6934
:100430009A407B685A6108E03B68DB78482B04D11E
:100440000122BB699A407B681A61BB690133BB61B9
:10045000BB69072BC3D97B687A691A603B681B8824
:10046000FF2B46D97B685B687B610023BB613AE068
:10047000BB690833012202FA03F3FB603B681B8867
:100480001A46FB6813403B613A69FB689A4227D1E0
:10049000BB699B00FB600F22FB6802FA03F3BB60A1
:1004A000BB68DB437A6913407B61FA69FB6802FA37
:1004B00003F37A6913437B613B68DB78282B05D112
:1004C000BB69083301229A407B685A613B68DB783C
:1004D000482B05D1BB69083301229A407B681A6119
:1004E000BB690133BB61BB69072BC1D97B687A69E2
:1004F0005A6000BF2437BD4680BC704780B483B0CB
:1005000000AF78607B684FF6FF721A807B6802222A
:100510009A707B680422DA7000BF0C37BD4680BC3D
:10052000704700BF80B485B000AF78600B467B8019
:100530000023FB737B689A687B881340002B02D0F2
:100540000123FB7301E00023FB73FB7B1846143788
:10055000BD4680BC704700BF80B483B000AF7860F8
:100560000B467B807A887B68DA6000BF0C37BD461B
:1005700080BC704780B483B000AF0346FB7108496C
:1005800097F907305B09FA7902F01F02012000FA9F
:1005900002F241F8232000BF0C37BD4680BC7047F3
:1005A00000E100E080B582B000AF78607B68092B85
:1005B0003ED801A252F823F0E1050008E905000841
:1005C000F1050008F9050008010600080906000801
:1005D000110600081906000821060008290600086F
:1005E000154800F0BFFA23E0144800F0BBFA1FE002
:1005F000134800F0B7FA1BE0124800F0B3FA17E016
:10060000114800F0AFFA13E0104800F0ABFA0FE029
:100610000F4800F0A7FA0BE00E4800F0A3FA07E03D
:100620000D4800F09FFA03E00C4800F09BFA00BF71
:1006300000BF0837BD4680BD001000080410000848
:10064000081000080C100008101000081410000812
:10065000181000081C1000082010000824100008C2
:1006600080B500AF01211448FFF7A0FD134B1B68B4
:100670000133124A1360114B1B683B2B1ADD0F4BE1
:1006800000221A600E4B1B6801330D4A13600C4B9D
:100690001B683B2B0EDD0A4B00221A60094B1B68BE
:1006A0000133084A1360074B1B68172B02DD054B0B
:1006B00000221A6000BF80BD00040040000000203E
:1006C000040000200800002080B586B000AF0121A2
:1006D0008448FFF76BFD01218348FFF723FF0346A2
:1006E000002B79D1814B1B687B61814B1B683B617F
:1006F000804B1B68FB600821012000F055FA7B69E4
:100700007D4A82FB03129210DB17D31A1846FFF7BB
:1007100049FF0921012000F047FA7A69764B83FBF3
:1007200002139910D317C91A0B469B000B445B00A8
:10073000D11A0846FFF736FF0A21012000F034FAEB
:100740006E4800F00FFA0B21012000F02DFA3B69F2
:10075000694A82FB03129210DB17D31A1846FFF77F
:1007600021FF0C21012000F01FFA3A69624B83FB44
:1007700002139910D317C91A0B469B000B445B0058
:10078000D11A0846FFF70EFF0D21012000F00CFAE8
:100790005A4800F0E7F90E21012000F005FAFB6845
:1007A000554A82FB03129210DB17D31A1846FFF743
:1007B000F9FE0F21012000F0F7F9FA684E4B83FB98
:1007C00002139910D317C91A0B469B000B445B0008
:1007D000D11A0846FFF7E6FE02214348FFF7A2FEC2
:1007E0000346002B79D1414B1B68BB60404B1B6813
:1007F0007B60404B1B683B600821022000F0D4F96D
:10080000BB683D4A82FB03129210DB17D31A1846CD
:10081000FFF7C8FE0921022000F0C6F9BA68364B7E
:1008200083FB02139910D317C91A0B469B000B4484
:100830005B00D11A0846FFF7B5FE0A21022000F03E
:10084000B3F92E4800F08EF90B21022000F0ACF92C
:100850007B68294A82FB03129210DB17D31A1846D1
:10086000FFF7A0FE0C21022000F09EF97A68224BCF
:1008700083FB02139910D317C91A0B469B000B4434
:100880005B00D11A0846FFF78DFE0D21022000F013
:100890008BF91A4800F066F90E21022000F084F965
:1008A0003B68154A82FB03129210DB17D31A1846D5
:1008B000FFF778FE0F21022000F076F93A680E4B20
:1008C00083FB02139910D317C91A0B469B000B44E4
:1008D0005B00D11A0846FFF765FE00BF1837BD461A
:1008E00080BD00BF00080040000801400800002053
:1008F00004000020000000206766666628100008DB
:1009000080B500AF01214FF08040FFF74FFC082178
:10091000002000F049F93A4B1B683A4A82FB031267
:100920009210DB17D31A1846FFF73CFE092100206E
:1009300000F03AF9324B1A68324B83FB02139910DC
:10094000D317C91A0B469B000B445B00D11A08460B
:10095000FFF728FE0A21002000F026F92A4800F0BF
:1009600001F90B21002000F01FF9284B1B68254AD4
:1009700082FB03129210DB17D31A1846FFF712FE00
:100980000C21002000F010F9204B1A681D4B83FB4E
:1009900002139910D317C91A0B469B000B445B0036
:1009A000D11A0846FFF7FEFD0D21002000F0FCF8EB
:1009B000154800F0D7F80E21002000F0F5F8144B90
:1009C0001B68104A82FB03129210DB17D31A1846D9
:1009D000FFF7E8FD0F21002000F0E6F80C4B1A6845
:1009E000084B83FB02139910D317C91A0B469B00BF
:1009F0000B445B00D11A0846FFF7D4FD00BF80BD51
:100A000008000020676666662810000804000020C1
:100A10000000002080B582B000AFFFF70BFC00F0B3
:100A20001DFA00F05DFA0621464800F061FA0C203C
:100A300000F01AF90121082000F082FA01210420B7
:100A400000F07EFA3B1D1846FFF758FD4823FB7166
:100A50000323BB800223BB713B1D19463A48FFF7B5
:100A600091FC0121042000F089FA0121022000F00C
:100A700085FA0121012000F081FA344B4FF416620F
:100A80001A85324B42F210729A85012201212F48B9
:100A9000FFF768FB01212D48FFF744FB1E20FFF7FD
:100AA00069FD2B4B4FF416621A85294B42F21072E6
:100AB0009A85012201212648FFF754FB0121244891
:100AC000FFF730FB1D20FFF755FD4FF080434FF43B
:100AD00016621A854FF0804342F210729A85012205
:100AE00001214FF08040FFF73DFB01214FF0804096
:100AF000FFF718FB1C20FFF73DFD0021002000F050
:100B000053F8144800F02EF80021012000F04CF8B2
:100B1000114800F027F80021022000F045F80F48A6
:100B200000F020F80021032000F03EF80C4800F00F
:100B300019F80921032000F037F8062000F012F917
:100B4000FEE700BFF80F0008000801400008004061
:100B5000000400402C100008341000083C1000086D
:100B60004410000880B584B000AF78600EE0FB7BD5
:100B7000BF2B07D9FB7BC03B0A4AD35C184600F069
:100B8000F1F803E0FB7B184600F0ECF87B685A1C98
:100B90007A601B78FB73FB7B002BE8D100BF10371A
:100BA000BD4680BDB80F000880B582B000AF0346D7
:100BB0000A46FB711346BB71FB79032B36D801A2A1
:100BC00052F823F0D50B0008E50B0008FD0B0008D8
:100BD000150C0008BB7963F07F03DBB2184600F008
:100BE00043F823E0BB794033DBB25BB263F07F03B1
:100BF0005BB2DBB2184600F037F817E0BB79103370
:100C0000DBB25BB263F07F035BB2DBB2184600F08D
:100C10002BF80BE0BB795033DBB25BB263F07F03A0
:100C20005BB2DBB2184600F01FF800BF00BF083708
:100C3000BD4680BD80B582B000AF0121082000F024
:100C40007FF94FF4FE53BB801023FB710323BB716C
:100C50003B1D19460348FFF795FB00BF0837BD460B
:100C600080BD00BF000C014080B582B000AF0346DC
:100C7000FB71FFF7DFFF394B45F6C0521A6000BF2A
:100C8000364B1B685A1E35490A60002BF8D1344A8E
:100C9000334BDB6823F48053D360FB791B09DBB251
:100CA0009BB29B019BB219462D48FFF755FC2C4A7D
:100CB0002B4BDB6843F48063D360284B0A221A6015
:100CC00000BF264B1B685A1E24490A60002BF8D12E
:100CD000234A234BDB6823F48063D3600021204840
:100CE000FFF73AFCFB799B019BB203F470739BB254
:100CF00019461B48FFF730FC184B0A221A6000BF48
:100D0000164B1B685A1E15490A60002BF8D1144A6D
:100D1000134BDB6843F48063D360104B0A221A60E4
:100D200000BF0E4B1B685A1E0C490A60002BF8D1FD
:100D30000B4A0B4BDB6823F48063D360084A084BF3
:100D4000DB6823F48053D360054A054BDB6823F44A
:100D50000063D36000BF0837BD4680BD0C00002093
:100D6000000C014080B582B000AF0346FB71FFF775
:100D700061FFFB791B09DBB29BB29B019BB2194659
:100D80003448FFF7E9FB334A324BDB6843F48063B6
:100D9000D360304A2F4BDB6843F48053D3602E4B33
:100DA0000A221A6000BF2C4B1B685A1E2A490A608F
:100DB000002BF8D1274A274BDB6823F48063D360EC
:100DC00000212448FFF7C8FBFB799B019BB203F489
:100DD00070739BB219461F48FFF7BEFB1E4B0A22D9
:100DE0001A6000BF1C4B1B685A1E1B490A60002B6F
:100DF000F8D1184A174BDB6843F48063D360154A77
:100E0000144BDB6843F48053D360134B0A221A60FF
:100E100000BF114B1B685A1E0F490A60002BF8D106
:100E20000C4A0C4BDB6823F48063D360094A094BFE
:100E3000DB6823F48053D360064A064BDB6823F457
:100E40000063D36000210348FFF786FB00BF08372B
:100E5000BD4680BD000C01400C00002080B500AFF5
:100E6000FFF7E8FE1C4B1D4A1A6000BF1A4B1B68B7
:100E70005A1E19490A60002BF8D12020FFF7F4FE12
:100E8000154B164A1A6000BF134B1B685A1E1249B5
:100E90000A60002BF8D10F20FFF7E6FE0E4B0F4A39
:100EA0001A6000BF0C4B1B685A1E0B490A60002BCE
:100EB000F8D10120FFF7D8FE074B084A1A6000BF9F
:100EC000054B1B685A1E04490A60002BF8D1042008
:100ED000FFF7CAFE00BF80BD0C00002040190100D2
:100EE00080B500AF0120FFF7BFFE00BF80BD00BF8F
:100EF00080B584B000AF78600B46FB70FB78DB00F8
:100F00005BB243F040035BB2FB730023BB810FE095
:100F1000FB7B5A1CFA731846FFF7A6FEBB897A685A
:100F200013441B781846FFF71DFFBB890133BB81B3
:100F3000BB89072BECD900BF1037BD4680BD00BF71
:100F400080B483B000AF78600B46FB70FB78002B59
:100F500006D00949084B9A697B6813438B6106E008
:100F60000549054B9A697B68DB4313408B6100BFE1
:100F70000C37BD4680BC70470010024080B483B07F
:100F800000AF78600B46FB70FB78002B06D0094958
:100F9000084BDA697B681343CB6106E00549054BD2
:100FA000DA697B68DB431340CB6100BF0C37BD4679
:100FB00080BC70470010024041A042A1E045A3A4BC
:100FC000A5A64BA74D484FA8504354A9AA58E1AB3A
:100FD000ACE2ADAE62AFB0B161B2B3B4E365B6B787
:100FE000B8B9BABBBCBD6FBE7063BF79E478E5C069
:100FF000C1E6C2C3C4C5C6C7040211011102040080
:10100000300000003100000032000000330000001A
:1010100034000000350000003600000037000000FA
:1010200038000000390000003A000000CAF0E8E390
:10103000E5F00000D5EBFBE7EEE20000CAEEE7EBDF
:0D104000EEE2E000D1E0E2E8EDEAEEE200D1
:0C104D00370000002C000000080000002C
:0400000508000000EF
:00000001FF
