:020000040800F2
:1000000040040020CD0200082D0300082D03000845
:100010002D0300082D0300082D0300080000000038
:100020000000000000000000000000002D03000898
:100030002D030008000000002D0300082D03000818
:100040002D0300082D0300082D0300082D030008D0
:100050002D0300082D0300082D0300082D030008C0
:100060002D0300082D0300082D0300082D030008B0
:100070002D0300082D0300082D0300082D030008A0
:100080002D0300082D0300082D03000800000000C8
:100090000000000000000000000000002D03000828
:1000A0002D0300082D0300082D0300082D03000870
:1000B000690F00082D030008CD0B00082D03000870
:1000C0002D0300082D0300082D0300082D03000850
:1000D0002D0300082D0300082D0300082D03000840
:1000E0002D0300082D0300082D0300080000000068
:1000F0000000000000000000000000000000000000
:1001000000000000000000000000000000000000EF
:100110000000000000000000F90900082D0300089D
:100120005FF808F180B400AF054A054B9B889BB28D
:1001300043F010039BB2938000BFBD4680BC704764
:100140000028004080B400AF054A054B9B889BB255
:1001500023F010039BB2938000BFBD4680BC704764
:100160000028004080B483B000AF0023FB80074B21
:100170009B8BFB80054B1B8B9BB21A04FB881343A4
:1001800018460C37BD4680BC704700BF00280040B1
:1001900080B582B000AF7860FFF7C4FF074A7B6884
:1001A0001B0C9BB21383054B7A6892B29A83FFF7BC
:1001B000C9FF00BF0837BD4680BD00BF0028004012
:1001C00080B582B000AF7860FFF7ACFF084A7B686B
:1001D0001B0C9BB203F00F039BB21381044B7A6894
:1001E00092B29A81FFF7AEFF00BF0837BD4680BDCF
:1001F0000028004080B400AF094A094B9B889BB29D
:1002000023F008039BB2938000BF054B9B889BB2F1
:1002100003F00803002BF8D000BFBD4680BC704738
:100220000028004080B483B000AF78600B46FB70BC
:10023000FB78002B08D07B681B889BB243F001033E
:100240009AB27B681A8007E07B681B889BB223F018
:1002500001039AB27B681A8000BF0C37BD4680BC90
:10026000704700BF80B483B000AF78600B467B80DE
:1002700013467B707B78002B08D07B689B899AB2F1
:100280007B8813439AB27B689A8109E07B689B89DB
:100290009AB27B88DB439BB213409AB27B689A8107
:1002A00000BF0C37BD4680BC704700BF80B483B030
:1002B00000AF78600B467B807B88DB439AB27B681B
:1002C0001A8200BF0C37BD4680BC704780B582B033
:1002D00000AF114B7B60114B3B6007E03B681A1D80
:1002E0003A607A68111D796012681A603B680C4A9E
:1002F0009342F3D30B480C494FF000028842B8BF39
:1003000040F8042BFADB00F015F800F043FF00BFC3
:100310000837BD4680BD00BF071800080000002058
:1003200010000020100000203C00002080B400AF2E
:10033000FEE700BF80B500AF174A174B1B6843F0BC
:10034000010313601449144B5A68144B13404B605B
:10035000114A114B1B6823F0847323F4803313601C
:100360000D4A0D4B1B6823F4802313600A4A0A4B85
:100370005B6823F4FE035360074B4FF41F029A603F
:10038000054B0022DA6200F00DF8054B4FF00062D9
:100390009A6000BF80BD00BF001002400000FFF85F
:1003A00000ED00E080B500AF00F002F800BF80BDB6
:1003B00080B483B000AF00237B6000233B60304AF1
:1003C0002F4B1B6843F4803313602D4B1B6803F4E1
:1003D00000333B607B6801337B603B68002B03D1BB
:1003E0007B68B3F5A06FF0D1254B1B6803F4003395
:1003F000002B02D001233B6001E000233B603B68FF
:10040000012B37D11E4A1E4B5B6853601C4A1C4BA4
:100410005B6853601A4A1A4B5B685360184A184B62
:100420005B6823F47C135360154A154B5B6843F4F7
:1004300098135360124A124B1B6843F08073136089
:1004400000BF0F4B1B6803F00073002BF9D00C4A60
:100450000B4B5B6823F003035360094A084B5B684E
:1004600043F00203536000BF054B5B6803F00C03CD
:10047000082BF9D100BF0C37BD4680BC704700BFC8
:100480000010024080B483B000AF0346FB71044A01
:10049000FB79136000BF0C37BD4680BC704700BFBE
:1004A00020000E4280B489B000AF7860396000232C
:1004B000FB6100233B610023BB610023FB60002341
:1004C0007B610023BB603B68DB7803F00F03FB61BB
:1004D0003B68DB7803F01003002B05D03B689B786A
:1004E0001A46FB691343FB613B681B88DBB2002B98
:1004F00044D07B681B687B610023BB6138E001222C
:10050000BB6902FA03F3FB603B681B881A46FB6871
:1005100013403B613A69FB689A4226D1BB699B0054
:10052000FB600F22FB6802FA03F3BB60BB68DB438E
:100530007A6913407B61FA69FB6802FA03F37A690E
:1005400013437B613B68DB78282B05D10122BB6913
:100550009A407B685A6108E03B68DB78482B04D1FD
:100560000122BB699A407B681A61BB690133BB6198
:10057000BB69072BC3D97B687A691A603B681B8803
:10058000FF2B46D97B685B687B610023BB613AE047
:10059000BB690833012202FA03F3FB603B681B8846
:1005A0001A46FB6813403B613A69FB689A4227D1BF
:1005B000BB699B00FB600F22FB6802FA03F3BB6080
:1005C000BB68DB437A6913407B61FA69FB6802FA16
:1005D00003F37A6913437B613B68DB78282B05D1F1
:1005E000BB69083301229A407B685A613B68DB781B
:1005F000482B05D1BB69083301229A407B681A61F8
:10060000BB690133BB61BB69072BC1D97B687A69C0
:100610005A6000BF2437BD4680BC704780B483B0A9
:1006200000AF78607B684FF6FF721A807B68022209
:100630009A707B680422DA7000BF0C37BD4680BC1C
:10064000704700BF80B485B000AF78600B467B80F8
:100650000023FB737B689A687B881340002B02D0D1
:100660000123FB7301E00023FB73FB7B1846143767
:10067000BD4680BC704700BF80B483B000AF7860D7
:100680000B467B807A887B681A6100BF0C37BD46B9
:1006900080BC704780B483B000AF78600B467B802D
:1006A0007A887B685A6100BF0C37BD4680BC7047B2
:1006B00080B483B000AF78600B467B807A887B681B
:1006C000DA6000BF0C37BD4680BC704780B483B091
:1006D00000AF0346FB71084997F907305B09FA79C7
:1006E00002F01F02012000FA02F241F8232000BFAD
:1006F0000C37BD4680BC704700E100E080B500AF1C
:1007000001214FF0C05001F001F80120FFF7BAFEBF
:10071000134B1B6A03F40043002B1ED1012001F090
:1007200013F8002001F010F8012000F08FFF00BF47
:100730000B4B1B6A03F00203002BF9D04FF48070BF
:1007400000F0A4FF47F6FF70FFF73AFD012000F02C
:10075000AFFFFFF74FFD012300E00023184680BDE7
:100760000010024080B485B000AF78607B681B78D1
:100770001A464FF4616303FB02F3FB607B685B780E
:100780001A4613461B019B1A9B001A46FB6813442A
:10079000FB607B689B781A46FB681344FB60FB6830
:1007A00018461437BD4680BC704700BF80B483B084
:1007B00000AF786039607968224BA3FB01235A09A6
:1007C00013461B019B1A9B00CA1AD2B23B689A704F
:1007D0003B689B781A461C4B1A607B68194AA2FB3F
:1007E00003235B097B607968164BA3FB01235A093D
:1007F00013461B019B1A9B00CA1AD2B23B685A705F
:100800003B685B781A46114B1A607B680D4AA2FB65
:1008100003235B097B6079680D4BA3FB01231A0955
:1008200013465B001344DB00CA1AD2B23B681A704D
:100830003B681B781A46074B1A6000BF0C37BD4651
:1008400080BC7047898888882C00002030000020F8
:10085000ABAAAAAA3800002080B582B000AF7860A9
:100860007B68092B3ED801A252F823F095080008B6
:100870009D080008A5080008AD080008B508000894
:10088000BD080008C5080008CD080008D508000804
:10089000DD080008154800F013FD23E0144800F0BF
:1008A0000FFD1FE0134800F00BFD1BE0124800F0A5
:1008B00007FD17E0114800F003FD13E0104800F0B9
:1008C000FFFC0FE00F4800F0FBFC0BE00E4800F0CF
:1008D000F7FC07E00D4800F0F3FC03E00C4800F0E3
:1008E000EFFC00BF00BF0837BD4680BDA817000859
:1008F000AC170008B0170008B4170008B8170008B4
:10090000BC170008C0170008C4170008C817000863
:10091000CC17000880B500AFFFF724FC02462C4B33
:100920001A602B4B1B682B491846FFF73FFF00212D
:10093000012000F0E7FC284B1B68072B07D9264B4A
:100940001B680C2B03D8254B1B681D2B07D9224B8A
:100950001B680C2B0DD9204B1B68112B09D8204884
:1009600000F0AEFC1F4800F0ABFC1F4800F0A8FCF4
:100970002CE0194B1B68112B03D8174B1B68072B56
:100980000FD81A4800F09CFC164800F099FC184853
:1009900000F096FC134800F093FC124800F090FC25
:1009A00014E0144800F08CFC0E4800F089FC0D485F
:1009B00000F086FC0B4800F083FC0A4800F080FC45
:1009C000084800F07DFC074800F07AFC00BF80BDBD
:1009D00028000020340000203800002030000020D3
:1009E000D0170008D8170008DC170008E417000823
:1009F000EC170008F417000880B500AF0121364855
:100A0000FFF754FCFFF7AEFB0246344B1A60334B42
:100A10001B6833491846FFF7C9FE324B1B68082B89
:100A200007D1314B1B68002B03D1304B1B68052BC2
:100A30000BD92C4B1B680C2B1DD12B4B1B681E2B71
:100A400019D12A4B1B68052B15D8294B1B68002B85
:100A500008D14FF400412748FFF70EFE244B012236
:100A60001A6036E04FF400412248FFF713FE204B96
:100A700000221A602DE01B4B1B680D2B07D11A4B6F
:100A80001B68002B03D1194B1B68052B0BD9154B89
:100A90001B68122B1DD1144B1B68002B19D1134B53
:100AA0001B68052B15D8124B1B68002B08D14FF47F
:100AB00000411048FFF7E0FD0D4B01221A6008E0ED
:100AC0004FF400410B48FFF7E5FD094B00221A6087
:100AD000FFE700BF80BD00BF0010004028000020DD
:100AE0003400002038000020300000202C000020BE
:100AF00010000020000C014080B483B000AF78608B
:100B00007B680F2B56D801A252F823F04D0B00083A
:100B1000550B00085D0B0008650B00086D0B000805
:100B2000750B00087D0B0008850B00088D0B000875
:100B3000950B00089D0B0008A50B0008B50B0008DD
:100B4000B50B0008B50B0008AD0B00081D4B0122CA
:100B50001A602FE01B4B04221A602BE0194B07226E
:100B60001A6027E0174B0B221A6023E0154B022274
:100B70001A601FE0134B05221A601BE0114B08227C
:100B80001A6017E00F4B00221A6013E00D4B03228E
:100B90001A600FE00B4B06221A600BE0094B09228A
:100BA0001A6007E0074B0D221A6003E0054B0F2285
:100BB0001A6000BF044B14221A6000BF0C37BD46F8
:100BC00080BC7047080000200400002080B582B07F
:100BD00000AF01219A48FFF769FB3B1D1846FFF75C
:100BE0001DFD0F23BB804823FB710223BB713B1DFE
:100BF00019469448FFF756FC3B461846FFF70EFD92
:100C0000F0233B801023FB700223BB703B46194648
:100C10008C48FFF747FCF0218A48FFF73BFD012194
:100C20008848FFF70FFD0346002B02D1864B0022B8
:100C30001A6002218348FFF705FD0346002B02D10D
:100C4000814B04221A6004217E48FFF7FBFC034617
:100C5000002B02D17C4B08221A6008217948FFF74B
:100C6000F1FC0346002B02D1774B0C221A603B1D8E
:100C70001846FFF7D3FC0F23BB801023FB71022320
:100C8000BB713B1D19466F48FFF70CFC0F216D48E7
:100C9000FFF700FD3B461846FFF7C0FCF0233B8002
:100CA0004823FB700223BB703B4619466548FFF79B
:100CB000F9FB10216348FFF7C5FC0346002B03D165
:100CC000614B1B68604A136020215E48FFF7BAFC45
:100CD0000346002B04D15C4B1B6801335A4A136056
:100CE00040215848FFF7AEFC0346002B04D1564B79
:100CF0001B680233544A136080215248FFF7A2FC5C
:100D00000346002B04D1504B1B6803334E4A13603B
:100D100000BF10214B48FFF795FC0346002BF8D08D
:100D200000BF20214748FFF78DFC0346002BF8D079
:100D300000BF40214348FFF785FC0346002BF8D055
:100D400000BF80213F48FFF77DFC0346002BF8D011
:100D50003D4B1B681846FFF7CFFE3C4B1B68142B1E
:100D600000F0F380394B1B680B2B07D0374B1B6807
:100D70000D2B03D0354B1B680F2B06D1344B0022B3
:100D80001A60324B1B68334A1360324B1B680F2BBF
:100D900011D1314B01221A60304B00221A60304BC6
:100DA00000221A602F4B00221A602A4B0B221A6075
:100DB000274B00221A60274B1B680D2B2BD1264B8B
:100DC00001221A60254B1B68DAB2274B1A70244B9C
:100DD0001B68DAB2244B5A70224B1B68DAB2224BE2
:100DE0009A701E4B00221A601D4B00221A601D4B88
:100DF00000221A60174B00221A601B48FFF7B2FC52
:100E000002461A4B1A60194B1B681846FFF7C0F9C7
:100E10000F4B01221A60104B1B68012B28D10B4B82
:100E20001B68022B24DC094B1A6813469B001344F1
:100E30005B001A46094B1A60074B02221A6081E0D8
:100E400000080040000801400400002008000020C5
:100E500000000020200000200C00002014000020D2
:100E6000180000201C000020340000202800002072
:100E7000384B1B68022B07D1374B1B680A2B03D852
:100E8000364B1B68092B0BDD324B1B68022B12D132
:100E9000314B1B68142B0ED1304B1B68032B0ADC23
:100EA0002C4B03221A602C4B1B682C4A12681344EB
:100EB000294A136046E0274B1B68032B10D1274BB0
:100EC0001B68052B0CDC234B04221A60234B1A6889
:100ED00013469B0013445B001A46214B1A6031E015
:100EE0001C4B1B68042B0AD11A4B05221A601C4BA1
:100EF0001B681A4A12681344194A136022E0154B02
:100F00001B68052B10D1154B1B68052B0CDC114BF6
:100F100006221A60114B1A6813469B0013445B00AB
:100F20001A46104B1A600DE00A4B1B68062B09D1BC
:100F3000084B01221A600B4B1B68084A12681344C5
:100F4000084A1360054B14221A6000BF0837BD46DB
:100F500080BD00BF0C00002014000020080000200D
:100F6000180000201C00002080B500AF01214FF0C8
:100F70008040FFF79BF97B4B1B68012B78D1FFF773
:100F8000F1F80246784B1A60774B1B687749184690
:100F9000FFF70CFC0821002000F0B4F9744B1B682B
:100FA000744AA2FB0323DB081846FFF755FC09210E
:100FB000002000F0A7F96E4B19686E4BA3FB0123CC
:100FC000DA0813469B0013445B00CA1A13461846FE
:100FD000FFF742FC0A21002000F094F9664800F077
:100FE0006FF90B21002000F08DF9644B1B68614AFA
:100FF000A2FB0323DB081846FFF72EFC0C21002080
:1010000000F080F95D4B19685A4BA3FB0123DA0805
:1010100013469B0013445B00CA1A13461846FFF799
:101020001BFC0D21002000F06DF9534800F048F939
:101030000E21002000F066F9514B1B684D4AA2FBBF
:101040000323DB081846FFF707FC0F21002000F000
:1010500059F94B4B1968474BA3FB0123DA08134698
:101060009B0013445B00CA1A13461846FFF7F4FBB3
:10107000FFF750FC434B1B680B2B03D0414B1B6805
:101080000F2B6DD10821002000F03CF93E4B1B686E
:10109000384AA2FB0323DB081846FFF7DDFB0921D2
:1010A000002000F02FF9384B1968324BA3FB0123C5
:1010B000DA0813469B0013445B00CA1A134618460D
:1010C000FFF7CAFB0A21002000F01CF92A4800F0B3
:1010D000F7F80B21002000F015F92C4B1B68254A6E
:1010E000A2FB0323DB081846FFF7B6FB0C21002008
:1010F00000F008F9254B19681E4BA3FB0123DA0801
:1011000013469B0013445B00CA1A13461846FFF7A8
:10111000A3FB0D21002000F0F5F8174800F0D0F8EF
:101120000E21002000F0EEF8194B1B68114AA2FBBB
:101130000323DB081846FFF78FFB0F21002000F088
:10114000E1F8134B19680B4BA3FB0123DA08134694
:101150009B0013445B00CA1A13461846FFF77CFB3A
:1011600000BF80BD000000202800002034000020C7
:1011700038000020CDCCCCCCFC170008300000207B
:101180002C00002020000020140000201800002067
:101190001C00002080B582B000AF0121082000F0C3
:1011A00097FA0121042000F093FA3B1D1846FFF73F
:1011B00035FA1023FB714FF40043BB800223BB714F
:1011C0003B1D19463848FFF76DF9FFF7B3F800F0FB
:1011D000F3F900F033FA0021002000F093F83348CF
:1011E00000F06EF80121102000F090FA0121042097
:1011F00000F08CFA0121012000F088FA2C4B01222A
:101200001A852B4B64229A85012201212848FFF779
:1012100029F801212648FFF705F83620FFF756FA8E
:10122000244B64221A85234B64229A8501220121D2
:101230002048FFF717F801211E48FEF7F3FF1E2094
:10124000FFF744FA4FF080434FF416621A854FF0CF
:10125000804342F210729A85012201214FF08040B2
:10126000FFF700F801214FF08040FEF7DBFF1C2064
:10127000FFF72CFAFFF742FA0346012B13D10E4B6E
:101280000C221A700C4B1D225A700B4B2D229A7097
:101290000948FFF767FA0246084B1A60074B1B68BC
:1012A0001846FEF775FFFEE7000C01400018000825
:1012B00000100040000800403400002028000020FA
:1012C00080B584B000AF78600EE0FB7BBF2B07D900
:1012D000FB7BC03B0A4AD35C184600F0F1F803E000
:1012E000FB7B184600F0ECF87B685A1C7A601B7890
:1012F000FB73FB7B002BE8D100BF1037BD4680BDE0
:101300006817000880B582B000AF03460A46FB713B
:101310001346BB71FB79032B36D801A252F823F098
:101320003113000841130008591300087113000815
:10133000BB7963F07F03DBB2184600F043F823E08B
:10134000BB794033DBB25BB263F07F035BB2DBB2ED
:10135000184600F037F817E0BB791033DBB25BB208
:1013600063F07F035BB2DBB2184600F02BF80BE0B2
:10137000BB795033DBB25BB263F07F035BB2DBB2AD
:10138000184600F01FF800BF00BF0837BD4680BDFB
:1013900080B582B000AF0121082000F099F94FF428
:1013A000FE53BB801023FB710323BB713B1D194609
:1013B0000348FFF777F800BF0837BD4680BD00BF80
:1013C000000C014080B582B000AF0346FB71FFF70F
:1013D000DFFF394B45F6C0521A6000BF364B1B6821
:1013E0005A1E35490A60002BF8D1344A334BDB686A
:1013F00023F48053D360FB791B09DBB29BB29B01C2
:101400009BB219462D48FFF753F92C4A2B4BDB684A
:1014100043F48063D360284B0A221A6000BF264B36
:101420001B685A1E24490A60002BF8D1234A234B1B
:10143000DB6823F48063D36000212048FFF738F98C
:10144000FB799B019BB203F470739BB219461B4856
:10145000FFF72EF9184B0A221A6000BF164B1B68C3
:101460005A1E15490A60002BF8D1144A134BDB6849
:1014700043F48063D360104B0A221A6000BF0E4B06
:101480001B685A1E0C490A60002BF8D10B4A0B4B03
:10149000DB6823F48063D360084A084BDB6823F4DD
:1014A0008053D360054A054BDB6823F40063D360A7
:1014B00000BF0837BD4680BD24000020000C01405D
:1014C00080B582B000AF0346FB71FFF761FFFB7987
:1014D0001B09DBB29BB29B019BB219463448FFF754
:1014E000E7F8334A324BDB6843F48063D360304A19
:1014F0002F4BDB6843F48053D3602E4B0A221A60D3
:1015000000BF2C4B1B685A1E2A490A60002BF8D1D9
:10151000274A274BDB6823F48063D36000212448EB
:10152000FFF7C6F8FB799B019BB203F470739BB283
:1015300019461F48FFF7BCF81E4B0A221A6000BF6D
:101540001C4B1B685A1E1B490A60002BF8D1184A15
:10155000174BDB6843F48063D360154A144BDB6898
:1015600043F48053D360134B0A221A6000BF114B1F
:101570001B685A1E0F490A60002BF8D10C4A0C4B0D
:10158000DB6823F48063D360094A094BDB6823F4EA
:101590008053D360064A064BDB6823F40063D360B4
:1015A00000210348FFF784F800BF0837BD4680BD1F
:1015B000000C01402400002080B500AFFFF7E8FEDA
:1015C0001C4B1D4A1A6000BF1A4B1B685A1E194952
:1015D0000A60002BF8D12020FFF7F4FE154B164AC5
:1015E0001A6000BF134B1B685A1E12490A60002B79
:1015F000F8D10F20FFF7E6FE0E4B0F4A1A6000BF2E
:101600000C4B1B685A1E0B490A60002BF8D10120B5
:10161000FFF7D8FE074B084A1A6000BF054B1B684E
:101620005A1E04490A60002BF8D10420FFF7CAFEB5
:1016300000BF80BD240000204019010080B500AF2C
:101640000120FFF7BFFE00BF80BD00BF80B483B0A4
:1016500000AF0346FB710C4B00221A700A4B0022AC
:101660001A70FB79012B02D0042B04D007E0064B43
:1016700001221A7003E0044B05221A7000BF00BF5C
:101680000C37BD4680BC70472010024080B483B048
:1016900000AF78600549054B1A6A7B6813430B62FB
:1016A00000BF0C37BD4680BC704700BF0010024031
:1016B00080B483B000AF0346FB71044AFB7913602A
:1016C00000BF0C37BD4680BC704700BF3C0442429F
:1016D00080B483B000AF78600B46FB70FB78002BC2
:1016E00006D00949084B9A697B6813438B6106E071
:1016F0000549054B9A697B68DB4313408B6100BF4A
:101700000C37BD4680BC70470010024080B483B0E7
:1017100000AF78600B46FB70FB78002B06D00949C0
:10172000084BDA697B681343CB6106E00549054B3A
:10173000DA697B68DB431340CB6100BF0C37BD46E1
:1017400080BC70470010024080B483B000AF0346F5
:10175000FB71044AFB79136000BF0C37BD4680BCA7
:10176000704700BF4004424241A042A1E045A3A40B
:10177000A5A64BA74D484FA8504354A9AA58E1AB82
:10178000ACE2ADAE62AFB0B161B2B3B4E365B6B7CF
:10179000B8B9BABBBCBD6FBE7063BF79E478E5C0B1
:1017A000C1E6C2C3C4C5C6C7300000003100000096
:1017B000320000003300000034000000350000005B
:1017C000360000003700000038000000390000003B
:1017D000D0E0E1EEF7E0FF0020000000F1ECE5EDE5
:1017E000E0000000CAEEEDE5F6000000F1ECE5EDEA
:1017F000FB000000CFE5F0E5F0FBE2003A0000005E
:07180000C2F0E5ECFF3A0025
:1018070001000000140000001400000001000000A7
:0400000508000000EF
:00000001FF
