:100000000C9450000C94B2010C94D3010C94620037
:100010000C9462000C9462000C9462000C946200D8
:100020000C946D010C9462000C9462000C946200BC
:100030000C9462000C9462000C9462000C946200B8
:100040000C9462000C9462000C9462000C946200A8
:100050000C946200450149014D01510155015901BE
:100060005D01610165016901000000000000000000
:100070001010101010101000181818181818180068
:100080001C1C1C1C1C1C1C001E1E1E1E1E1E1E00DA
:100090001F1F1F1F1F1F1F00040211011102040058
:1000A00011241FBECFE5D4E0DEBFCDBF20E0A0E627
:1000B000B0E001C01D92A037B207E1F70E94F40141
:1000C0000C94F6030C940000982F907F9BBBD89A59
:1000D000DA9AE9EFF0E03197F1F700C00000DA9822
:1000E000D898E9EFF0E03197F1F700C00000F0E1B7
:1000F0008F9FC00111248BBBD89ADA9A89EF90E0C8
:100100000197F1F700C00000DA98D898E9EFF0E025
:100110003197F1F700C000000895982F907F9BBBA6
:10012000DA9AE9EFF0E03197F1F700C00000DA98D1
:10013000E9EFF0E03197F1F700C00000F0E18F9FA8
:10014000C00111248BBBDA9A89EF90E00197F1F797
:1001500000C00000DA98E9EFF0E03197F1F700C055
:100160000000089581E00E948D000895623031F012
:10017000633031F0613029F4805C03C08C5E01C0D3
:100180008C5A80680E948D000895FF920F931F93F0
:10019000CF93DF93660F660F660F6064EC0168947F
:1001A000FF24F3F8F60EFE01049111E0160F862FDE
:1001B0000E948D00802F0E9464002196612F1F11E4
:1001C000F2CFDF91CF911F910F91FF9008951F9370
:1001D000CF93DF9385EA9EE00197F1F700C000001E
:1001E0001BBA1BBA8AB3806F8ABB8AB387608ABB8B
:1001F00080E38BBBDA9AE9EFF0E03197F1F700C0CA
:100200000000DA98E9EFF0E03197F1F700C0000064
:100210008BBBDA9A89EF90E00197F1F700C00000FC
:10022000DA98E9EFF0E03197F1F700C0000080E2E2
:100230008BBBDA9A89EF90E00197F1F700C00000DC
:10024000DA98E9EFF0E03197F1F700C0000088E2BA
:100250000E948D008CE00E948D00C8E6D0E060E036
:1002600011E0160FCE010E94C5002896612F1830AC
:10027000B9F7DF91CF911F9108958A30910560F50C
:10028000FC01E65DFF4F0C94DC0380E30E946400F8
:10029000089581E30E946400089582E30E9464004F
:1002A000089583E30E946400089584E30E9464003B
:1002B000089585E30E946400089586E30E94640027
:1002C000089587E30E946400089588E30E94640013
:1002D000089589E30E94640008951F920F920FB65B
:1002E0000F9211248F939F9380916E0090916F00D5
:1002F00001968C3391052CF490936F0080936E00DF
:1003000026C010926F0010926E0080916C00909148
:100310006D0001968C3391052CF490936D008093C1
:100320006C0015C010926D0010926C0080916A00F4
:1003300090916B000196883191052CF490936B009D
:1003400080936A0004C010926B0010926A008BE7E1
:1003500091EE9DBD8CBD9F918F910F900FBE0F9020
:100360001F9018951F920F920FB60F9211242F9382
:100370008F939F932FE788E391E021508040904036
:10038000E1F700C00000829906C081E090E0909300
:100390006300809362009F918F912F910F900FBE09
:1003A0000F901F9018951F920F920FB60F92112465
:1003B0002F938F939F932FE788E391E02150804004
:1003C0009040E1F700C00000839906C081E090E012
:1003D00090936100809360009F918F912F910F9077
:1003E0000FBE0F901F90189511BA8FEF82BB8BB77D
:1003F00080648BBF8BB780688BBF8AE085BF85E048
:100400008EBD89B7846089BF8BE791EE9DBD8CBDA1
:1004100078940E94E7000E94B20066E088E990E0CC
:100420000E94C50060E080E00E94B60088E50E945E
:1004300064008BEB0E94640083EC0E94640087EBF5
:100440000E9464008FE60E94640083EB0E946400B7
:1004500061E080E00E94B6008BE40E94640080E7C7
:100460000E94640088EB0E94640084EB0E94640098
:1004700085E60E94640080E70E94640062E08CEFE1
:100480000E94B6008BE40E9464008FE60E94640024
:1004900087EB0E9464008BEB0E9464008FE60E9451
:1004A000640083EB0E94640081E60E94640063E0C4
:1004B0008CEF0E94B60083E40E94640081E60E94F3
:1004C000640083EB0E94640088EB0E9464008DEB63
:1004D0000E9464008AEB0E9464008FE60E94640020
:1004E00083EB0E94640063E085E00E94B60086E032
:1004F0000E946400CAE0D0E060E088E00E94B6009C
:1005000080916A0090916B00BE010E94C803CB01EC
:100510000E943D0160E089E00E94B60080916A007F
:1005200090916B00BE010E94C8030E943D0160E0F3
:100530008AE00E94B6008AE30E94640060E08BE0DB
:100540000E94B60080916C0090916D00BE010E94E7
:10055000C803CB010E943D0160E08CE00E94B60020
:1005600080916C0090916D00BE010E94C8030E94B2
:100570003D0160E08DE00E94B6008AE30E946400C5
:1005800060E08EE00E94B60080916E0090916F0056
:10059000BE010E94C803CB010E943D0160E08FE0D4
:1005A0000E94B60080916E0090916F00BE010E9483
:1005B000C8030E943D0180916A0090916B00909366
:1005C00065008093640080916C0090916D00909321
:1005D00067008093660080916E0090916F00909309
:1005E0006900809368008091620090916300019798
:1005F00009F063C062E084E00E94B600809164006C
:1006000090916500BE010E94C803CB010E943D018C
:1006100062E085E00E94B6008091640090916500E0
:10062000BE010E94C8030E943D0162E086E00E9474
:10063000B6008AE30E94640062E087E00E94B60090
:100640008091660090916700BE010E94C803CB01B3
:100650000E943D0162E088E00E94B6008091660041
:1006600090916700BE010E94C8030E943D0162E0B4
:1006700089E00E94B6008AE30E94640062E08AE09A
:100680000E94B6008091680090916900BE010E94AE
:10069000C803CB010E943D0162E08BE00E94B600DE
:1006A0008091680090916900BE010E94C8030E9479
:1006B0003D01109263001092620080916000909161
:1006C0006100019709F018CF61E088E00E94B60050
:1006D0008091640090916500BE010E94C803CB0127
:1006E0000E943D0161E089E00E94B60080916400B3
:1006F00090916500BE010E94C8030E943D0161E027
:100700008AE00E94B6008AE30E94640061E08BE008
:100710000E94B6008091660090916700BE010E9421
:10072000C803CB010E943D0161E08CE00E94B6004D
:100730008091660090916700BE010E94C8030E94EC
:100740003D0161E08DE00E94B6008AE30E946400F2
:1007500061E08EE00E94B60080916800909169008F
:10076000BE010E94C803CB010E943D0161E08FE001
:100770000E94B6008091680090916900BE010E94BD
:10078000C8030E943D011092610010926000B4CE37
:1007900097FB072E16F4009407D077FD09D00E942E
:1007A000E20307FC05D03EF4909581959F4F089594
:1007B000709561957F4F0895EE0FFF1F0590F4919E
:1007C000E02D0994AA1BBB1B51E107C0AA1FBB1F48
:1007D000A617B70710F0A61BB70B881F991F5A95CD
:1007E000A9F780959095BC01CD010895F894FFCFAD
:00000001FF
