:020000040800F2
:1000000038040020CD0100082D0200082D02000850
:100010002D0200082D0200082D020008000000003B
:100020000000000000000000000000002D02000899
:100030002D020008000000002D0200082D0200081B
:100040002D0200082D0200082D0200082D020008D4
:100050002D0200082D0200082D0200082D020008C4
:100060002D0200082D0200082D0200082D020008B4
:100070002D0200082D0200082D0200082D020008A4
:100080002D0200082D0200082D02000800000000CB
:100090000000000000000000000000002D02000829
:1000A0002D0200082D0200082D0200082D02000874
:1000B000290D000899060008950900082D0200087E
:1000C0002D0200082D0200082D0200082D02000854
:1000D0002D0200082D0200082D0200082D02000844
:1000E0002D0200082D0200082D020008000000006B
:1000F0000000000000000000000000000000000000
:1001000000000000000000000000000000000000EF
:100110000000000000000000E10700082D020008B8
:100120005FF808F180B483B000AF78600B46FB70D5
:10013000FB78002B08D07B681B889BB243F001033F
:100140009AB27B681A8007E07B681B889BB223F019
:1001500001039AB27B681A8000BF0C37BD4680BC91
:10016000704700BF80B483B000AF78600B467B80DF
:1001700013467B707B78002B08D07B689B899AB2F2
:100180007B8813439AB27B689A8109E07B689B89DC
:100190009AB27B88DB439BB213409AB27B689A8108
:1001A00000BF0C37BD4680BC704700BF80B483B031
:1001B00000AF78600B467B807B88DB439AB27B681C
:1001C0001A8200BF0C37BD4680BC704780B582B034
:1001D00000AF114B7B60114B3B6007E03B681A1D81
:1001E0003A607A68111D796012681A603B680C4A9F
:1001F0009342F3D30B480C494FF000028842B8BF3A
:1002000040F8042BFADB00F015F800F0A7FE00BF61
:100210000837BD4680BD00BF27150008000000203C
:100220001C0000201C0000203400002080B400AF1F
:10023000FEE700BF80B500AF174A174B1B6843F0BD
:10024000010313601449144B5A68144B13404B605C
:10025000114A114B1B6823F0847323F4803313601D
:100260000D4A0D4B1B6823F4802313600A4A0A4B86
:100270005B6823F4FE035360074B4FF41F029A6040
:10028000054B0022DA6200F00DF8054B4FF00062DA
:100290009A6000BF80BD00BF001002400000FFF860
:1002A00000ED00E080B500AF00F002F800BF80BDB7
:1002B00080B483B000AF00237B6000233B60304AF2
:1002C0002F4B1B6843F4803313602D4B1B6803F4E2
:1002D00000333B607B6801337B603B68002B03D1BC
:1002E0007B68B3F5A06FF0D1254B1B6803F4003396
:1002F000002B02D001233B6001E000233B603B6800
:10030000012B37D11E4A1E4B5B6853601C4A1C4BA5
:100310005B6853601A4A1A4B5B685360184A184B63
:100320005B6823F47C135360154A154B5B6843F4F8
:1003300098135360124A124B1B6843F0807313608A
:1003400000BF0F4B1B6803F00073002BF9D00C4A61
:100350000B4B5B6823F003035360094A084B5B684F
:1003600043F00203536000BF054B5B6803F00C03CE
:10037000082BF9D100BF0C37BD4680BC704700BFC9
:100380000010024080B489B000AF7860396000236B
:10039000FB6100233B610023BB610023FB60002362
:1003A0007B610023BB603B68DB7803F00F03FB61DC
:1003B0003B68DB7803F01003002B05D03B689B788B
:1003C0001A46FB691343FB613B681B88DBB2002BB9
:1003D00044D07B681B687B610023BB6138E001224D
:1003E000BB6902FA03F3FB603B681B881A46FB6893
:1003F00013403B613A69FB689A4226D1BB699B0076
:10040000FB600F22FB6802FA03F3BB60BB68DB43AF
:100410007A6913407B61FA69FB6802FA03F37A692F
:1004200013437B613B68DB78282B05D10122BB6934
:100430009A407B685A6108E03B68DB78482B04D11E
:100440000122BB699A407B681A61BB690133BB61B9
:10045000BB69072BC3D97B687A691A603B681B8824
:10046000FF2B46D97B685B687B610023BB613AE068
:10047000BB690833012202FA03F3FB603B681B8867
:100480001A46FB6813403B613A69FB689A4227D1E0
:10049000BB699B00FB600F22FB6802FA03F3BB60A1
:1004A000BB68DB437A6913407B61FA69FB6802FA37
:1004B00003F37A6913437B613B68DB78282B05D112
:1004C000BB69083301229A407B685A613B68DB783C
:1004D000482B05D1BB69083301229A407B681A6119
:1004E000BB690133BB61BB69072BC1D97B687A69E2
:1004F0005A6000BF2437BD4680BC704780B483B0CB
:1005000000AF78607B684FF6FF721A807B6802222A
:100510009A707B680422DA7000BF0C37BD4680BC3D
:10052000704700BF80B485B000AF78600B467B8019
:100530000023FB737B689A687B881340002B02D0F2
:100540000123FB7301E00023FB73FB7B1846143788
:10055000BD4680BC704700BF80B483B000AF7860F8
:100560000B467B807A887B681A6100BF0C37BD46DA
:1005700080BC704780B483B000AF78600B467B804E
:100580007A887B685A6100BF0C37BD4680BC7047D3
:1005900080B483B000AF78600B467B807A887B683C
:1005A000DA6000BF0C37BD4680BC704780B483B0B2
:1005B00000AF0346FB71084997F907305B09FA79E8
:1005C00002F01F02012000FA02F241F8232000BFCE
:1005D0000C37BD4680BC704700E100E080B582B0BA
:1005E00000AF78607B68092B3ED801A252F823F057
:1005F000190600082106000829060008310600082F
:10060000390600084106000849060008510600089E
:100610005906000861060008154800F033FD23E084
:10062000144800F02FFD1FE0134800F02BFD1BE0E5
:10063000124800F027FD17E0114800F023FD13E0F9
:10064000104800F01FFD0FE00F4800F01BFD0BE00D
:100650000E4800F017FD07E00D4800F013FD03E021
:100660000C4800F00FFD00BF00BF0837BD4680BD3D
:10067000C8140008CC140008D0140008D4140008D2
:10068000D8140008DC140008E0140008E414000882
:10069000E8140008EC14000880B500AF01211448EC
:1006A000FFF784FD134B1B680133124A1360114B93
:1006B0001B683B2B1ADD0F4B00221A600E4B1B6888
:1006C00001330D4A13600C4B1B683B2B0EDD0A4BAC
:1006D00000221A60094B1B680133084A1360074B5C
:1006E0001B68172B02DD054B00221A6000BF80BD7E
:1006F000000400400000002004000020080000204A
:1007000080B500AF0021012000F0DEFC2C4B1B68FF
:10071000072B0BDD2B4B1B68002B07DB284B1B68C3
:100720000C2B03DC274B1B681D2B0BDD244B1B689C
:100730000C2B11DD234B1B68002B0DDB204B1B68A2
:10074000112B09DC204800F09DFC204800F09AFCA9
:100750001F4800F097FC30E0194B1B68112B03DD9C
:10076000184B1B68002B03DA154B1B68072B0FDC9B
:10077000184800F087FC154800F084FC164800F08B
:1007800081FC124800F07EFC104800F07BFC14E075
:10079000124800F077FC0D4800F074FC0B4800F0A4
:1007A00071FC0A4800F06EFC084800F06BFC07483A
:1007B00000F068FC054800F065FC00BF80BD00BF8C
:1007C0000800002004000020F0140008F8140008BD
:1007D000FC140008041500080C1500081415000886
:1007E00080B500AF01213048FFF7E0FC2F4B1B68BC
:1007F000082B07D12E4B1B68002B03D12D4B1B68F8
:100800000F2B0BDD294B1B680C2B1DD1284B1B68B4
:100810001E2B19D1274B1B680F2B15DC264B1B6891
:10082000002B08D14FF400412448FFF795FE224BDE
:1008300001221A6036E04FF400412048FFF79AFE8B
:100840001D4B00221A602DE0184B1B680D2B07D1A1
:10085000174B1B68002B03D1164B1B680F2B0BDDAE
:10086000124B1B68122B1DD1114B1B68002B19D189
:10087000104B1B680F2B15DC0F4B1B68002B08D18E
:100880004FF400410D48FFF767FE0B4B01221A6041
:1008900008E04FF400410948FFF76CFE064B0022C8
:1008A0001A60FFE700BF80BD001000400800002074
:1008B00004000020000000201C000020000C01406B
:1008C00080B483B000AF78607B680F2B56D801A24C
:1008D00052F823F0150900081D0900082509000831
:1008E0002D090008350900083D09000845090008E0
:1008F0004D090008550900085D0900086509000850
:100900006D0900087D0900087D0900087D090008BF
:10091000750900081D4B01221A602FE01B4B0422B1
:100920001A602BE0194B07221A6027E0174B0B22A5
:100930001A6023E0154B02221A601FE0134B0522B8
:100940001A601BE0114B08221A6017E00F4B0022BF
:100950001A6013E00D4B03221A600FE00B4B0622C6
:100960001A600BE0094B09221A6007E0074B0D22C1
:100970001A6003E0054B0F221A6000BF044B1422DB
:100980001A6000BF0C37BD4680BC704714000020C1
:100990001000002080B582B000AF0121A948FFF708
:1009A00005FC3B1D1846FFF7A9FD0F23BB8048231C
:1009B000FB710223BB713B1D1946A348FFF7E2FC04
:1009C0003B461846FFF79AFDF0233B801023FB704F
:1009D0000223BB703B4619469B48FFF7D3FCF0212E
:1009E0009948FFF7C7FD01219748FFF79BFD034694
:1009F000002B02D1954B00221A6002219248FFF78A
:100A000091FD0346002B02D1904B04221A60042171
:100A10008D48FFF787FD0346002B02D18B4B082240
:100A20001A6008218848FFF77DFD0346002B02D19C
:100A3000864B0C221A603B1D1846FFF75FFD0F2303
:100A4000BB801023FB710223BB713B1D19467E48FE
:100A5000FFF798FC0F217C48FFF78CFD3B461846BA
:100A6000FFF74CFDF0233B804823FB700223BB7053
:100A70003B4619467448FFF785FC10217248FFF782
:100A800051FD0346002B03D1704B1B686F4A136066
:100A900020216D48FFF746FD0346002B04D16B4B28
:100AA0001B680133694A136040216748FFF73AFD2C
:100AB0000346002B04D1654B1B680233634A136065
:100AC00080216148FFF72EFD0346002B04D15F4BC8
:100AD0001B6803335D4A136000BF10215A48FFF7BB
:100AE00021FD0346002BF8D000BF20215648FFF718
:100AF00019FD0346002BF8D000BF40215248FFF7F4
:100B000011FD0346002BF8D000BF80214E48FFF7AF
:100B100009FD0346002BF8D04C4B1B681846FFF725
:100B2000CFFE4B4B1B68142B00F0F280484B1B6828
:100B30000B2B07D0464B1B680D2B03D0444B1B6877
:100B40000F2B0AD100214348FFF7ECFA424B002259
:100B50001A603F4B1B68414A1360404B1B680F2BC8
:100B600011D13F4B01221A603E4B00221A603E4BCE
:100B700000221A603D4B00221A60384B0B221A608B
:100B8000354B00221A60354B1B680D2B21D1344B9D
:100B900001221A60334B1B68354A1360324B1B68C5
:100BA000344A1360314B1B68334A13602D4B0022CB
:100BB0001A602D4B00221A602C4B00221A60274B22
:100BC00000221A60244B01221A6001212148FFF7FC
:100BD000A9FA234B1B68012B10D11D4B1B68022B5C
:100BE0000CDC1B4B1A6813469B0013445B001A462F
:100BF0001C4B1A601A4B02221A6086E0184B1B68C5
:100C0000022B07D1174B1B680A2B03DC104B1B6808
:100C1000092B0BDD124B1B68022B2FD1114B1B68CC
:100C2000142B2BD10A4B1B68032B27DC0C4B032204
:100C30001A600C4B1A68064B1B681344094A136070
:100C400063E000BF000800400008014010000020E1
:100C500014000020000400400C0000202C000020A4
:100C60001800002020000020240000202800002080
:100C7000080000200400002000000020264B1B6814
:100C8000032B10D1254B1B68052B0CDC224B0422B7
:100C90001A60224B1A6813469B0013445B001A46E5
:100CA0001F4B1A6031E01C4B1B68042B0AD11A4BF6
:100CB00005221A601A4B1A68184B1B681344184A0D
:100CC000136022E0144B1B68052B10D1134B1B68DB
:100CD000052B0CDC104B06221A60104B1A681346C9
:100CE0009B0013445B001A460E4B1A600DE00A4B42
:100CF0001B68062B09D1084B01221A60094B1A68A0
:100D0000064B1B681344074A1360044B14221A60F5
:100D100000BF0837BD4680BD180000201400002029
:100D2000240000202800002080B500AF01214FF0F2
:100D30008040FFF73BFA7F4B1B68012B76D10821DF
:100D4000002000F0C1F97C4B1B687C4A82FB031237
:100D50009210DB17D31A1846FFF740FC0921002038
:100D600000F0B2F9744B1A68744B83FB02139910AC
:100D7000D317C91A0B469B000B445B00D11A0846D7
:100D8000FFF72CFC0A21002000F09EF96C4800F0CF
:100D900079F90B21002000F097F96A4B1B68674A2C
:100DA00082FB03129210DB17D31A1846FFF716FCCA
:100DB0000C21002000F088F9624B1A685F4B83FB1E
:100DC00002139910D317C91A0B469B000B445B0002
:100DD000D11A0846FFF702FC0D21002000F074F93B
:100DE000574800F04FF90E21002000F06DF9564BE6
:100DF0001B68524A82FB03129210DB17D31A184663
:100E0000FFF7ECFB0F21002000F05EF94E4B1A6853
:100E10004A4B83FB02139910D317C91A0B469B0048
:100E20000B445B00D11A0846FFF7D8FBFFF768FCBC
:100E3000464B1B680B2B03D0444B1B680F2B76D102
:100E40000821002000F040F9414B1B683B4A82FB1F
:100E500003129210DB17D31A1846FFF7BFFB0921C4
:100E6000002000F031F93A4B1A68344B83FB02132F
:100E70009910D317C91A0B469B000B445B00D11A7B
:100E80000846FFF7ABFB0A21002000F01DF92C48B3
:100E900000F0F8F80B21002000F016F92D4B1B682C
:100EA000264A82FB03129210DB17D31A1846FFF76B
:100EB00095FB0C21002000F007F9264B1A681F4B08
:100EC00083FB02139910D317C91A0B469B000B44DE
:100ED0005B00D11A0846FFF781FB0D21002000F0CE
:100EE000F3F8174800F0CEF80E21002000F0ECF8DF
:100EF000194B1B68114A82FB03129210DB17D31A9D
:100F00001846FFF76BFB0F21002000F0DDF8124BB5
:100F10001A680A4B83FB02139910D317C91A0B46A0
:100F20009B000B445B00D11A0846FFF757FB00BF3C
:100F300080BD00BF0C0000200800002067666666C8
:100F40001C15000804000020000000202C000020D8
:100F500020000020240000202800002080B582B05E
:100F600000AF0121082000F053FA0121042000F015
:100F70004FFA3B1D1846FFF7C1FA1023FB714FF4DF
:100F80000043BB800223BB713B1D19463848FFF765
:100F9000F9F9FFF74FF900F0F1F900F031FA00210B
:100FA000002000F091F8334800F06CF80121102087
:100FB00000F04CFA0121042000F048FA012102203F
:100FC00000F044FA0121012000F040FA2A4B0122EE
:100FD0001A85294B64229A85012201212648FFF7B0
:100FE000C1F801212448FFF79DF83620FFF7DEFA0B
:100FF000224B64221A85214B64229A850122012109
:101000001E48FFF7AFF801211C48FFF78BF81E20A0
:10101000FFF7CCFA1A4B4FF416621A85184B42F2BE
:1010200010729A85012201211548FFF79BF80121D2
:101030001348FFF777F81D20FFF7B8FA4FF0804309
:101040004FF416621A854FF0804342F210729A856F
:10105000012201214FF08040FFF784F801214FF079
:101060008040FFF75FF81C20FFF7A0FAFEE700BF03
:10107000000C01402015000800100040000800404E
:101080000004004080B584B000AF78600EE0FB7BC8
:10109000BF2B07D9FB7BC03B0A4AD35C184600F044
:1010A000F1F803E0FB7B184600F0ECF87B685A1C73
:1010B0007A601B78FB73FB7B002BE8D100BF1037F5
:1010C000BD4680BD8814000880B582B000AF0346DD
:1010D0000A46FB711346BB71FB79032B36D801A27C
:1010E00052F823F0F5100008051100081D11000842
:1010F00035110008BB7963F07F03DBB2184600F0BE
:1011000043F823E0BB794033DBB25BB263F07F038B
:101110005BB2DBB2184600F037F817E0BB7910334A
:10112000DBB25BB263F07F035BB2DBB2184600F068
:101130002BF80BE0BB795033DBB25BB263F07F037B
:101140005BB2DBB2184600F01FF800BF00BF0837E3
:10115000BD4680BD80B582B000AF0121082000F0FF
:1011600057F94FF4FE53BB801023FB710323BB716F
:101170003B1D19460348FFF705F900BF0837BD4678
:1011800080BD00BF000C014080B582B000AF0346B7
:10119000FB71FFF7DFFF394B45F6C0521A6000BF05
:1011A000364B1B685A1E35490A60002BF8D1344A69
:1011B000334BDB6823F48053D360FB791B09DBB22C
:1011C0009BB29B019BB219462D48FFF7E1F92C4ACF
:1011D0002B4BDB6843F48063D360284B0A221A60F0
:1011E00000BF264B1B685A1E24490A60002BF8D109
:1011F000234A234BDB6823F48063D360002120481B
:10120000FFF7C6F9FB799B019BB203F470739BB2A5
:1012100019461B48FFF7BCF9184B0A221A6000BF99
:10122000164B1B685A1E15490A60002BF8D1144A48
:10123000134BDB6843F48063D360104B0A221A60BF
:1012400000BF0E4B1B685A1E0C490A60002BF8D1D8
:101250000B4A0B4BDB6823F48063D360084A084BCE
:10126000DB6823F48053D360054A054BDB6823F425
:101270000063D36000BF0837BD4680BD300000204A
:10128000000C014080B582B000AF0346FB71FFF750
:1012900061FFFB791B09DBB29BB29B019BB2194634
:1012A0003448FFF775F9334A324BDB6843F4806307
:1012B000D360304A2F4BDB6843F48053D3602E4B0E
:1012C0000A221A6000BF2C4B1B685A1E2A490A606A
:1012D000002BF8D1274A274BDB6823F48063D360C7
:1012E00000212448FFF754F9FB799B019BB203F4DA
:1012F00070739BB219461F48FFF74AF91E4B0A222A
:101300001A6000BF1C4B1B685A1E1B490A60002B49
:10131000F8D1184A174BDB6843F48063D360154A51
:10132000144BDB6843F48053D360134B0A221A60DA
:1013300000BF114B1B685A1E0F490A60002BF8D1E1
:101340000C4A0C4BDB6823F48063D360094A094BD9
:10135000DB6823F48053D360064A064BDB6823F432
:101360000063D36000210348FFF712F900BF08377C
:10137000BD4680BD000C01403000002080B500AFAC
:10138000FFF7E8FE1C4B1D4A1A6000BF1A4B1B6892
:101390005A1E19490A60002BF8D12020FFF7F4FEED
:1013A000154B164A1A6000BF134B1B685A1E124990
:1013B0000A60002BF8D10F20FFF7E6FE0E4B0F4A14
:1013C0001A6000BF0C4B1B685A1E0B490A60002BA9
:1013D000F8D10120FFF7D8FE074B084A1A6000BF7A
:1013E000054B1B685A1E04490A60002BF8D10420E3
:1013F000FFF7CAFE00BF80BD300000204019010089
:1014000080B500AF0120FFF7BFFE00BF80BD00BF69
:1014100080B483B000AF78600B46FB70FB78002B84
:1014200006D00949084B9A697B6813438B6106E033
:101430000549054B9A697B68DB4313408B6100BF0C
:101440000C37BD4680BC70470010024080B483B0AA
:1014500000AF78600B46FB70FB78002B06D0094983
:10146000084BDA697B681343CB6106E00549054BFD
:10147000DA697B68DB431340CB6100BF0C37BD46A4
:1014800080BC70470010024041A042A1E045A3A4E7
:10149000A5A64BA74D484FA8504354A9AA58E1AB65
:1014A000ACE2ADAE62AFB0B161B2B3B4E365B6B7B2
:1014B000B8B9BABBBCBD6FBE7063BF79E478E5C094
:1014C000C1E6C2C3C4C5C6C7300000003100000079
:1014D000320000003300000034000000350000003E
:1014E000360000003700000038000000390000001E
:1014F000D0E0E1EEF7E0FF0020000000F1ECE5EDC8
:10150000E0000000CAEEEDE5F6000000F1ECE5EDCC
:10151000FB000000CFE5F0E5F0FBE2003A00000040
:07152000C2F0E5ECFF3A0008
:10152700320000001D0000000C0000000100000058
:0C1537001400000014000000010000007F
:0400000508000000EF
:00000001FF
