:020000040800F2
:1000000040040020CD0100082D0200082D02000848
:100010002D0200082D0200082D020008000000003B
:100020000000000000000000000000002D02000899
:100030002D020008000000002D0200082D0200081B
:100040002D0200082D0200082D0200082D020008D4
:100050002D0200082D0200082D0200082D020008C4
:100060002D0200082D0200082D0200082D020008B4
:100070002D0200082D0200082D0200082D020008A4
:100080002D0200082D0200082D02000800000000CB
:100090000000000000000000000000002D02000829
:1000A0002D0200082D0200082D0200082D02000874
:1000B0006514000899060008B51000082D02000814
:1000C0002D0200082D0200082D0200082D02000854
:1000D0002D0200082D0200082D0200082D02000844
:1000E0002D0200082D0200082D020008000000006B
:1000F0000000000000000000000000000000000000
:1001000000000000000000000000000000000000EF
:100110000000000000000000810F00082D02000810
:100120005FF808F180B483B000AF78600B46FB70D5
:10013000FB78002B08D07B681B889BB243F001033F
:100140009AB27B681A8007E07B681B889BB223F019
:1001500001039AB27B681A8000BF0C37BD4680BC91
:10016000704700BF80B483B000AF78600B467B80DF
:1001700013467B707B78002B08D07B689B899AB2F2
:100180007B8813439AB27B689A8109E07B689B89DC
:100190009AB27B88DB439BB213409AB27B689A8108
:1001A00000BF0C37BD4680BC704700BF80B483B031
:1001B00000AF78600B467B807B88DB439AB27B681C
:1001C0001A8200BF0C37BD4680BC704780B582B034
:1001D00000AF114B7B60114B3B6007E03B681A1D81
:1001E0003A607A68111D796012681A603B680C4A9F
:1001F0009342F3D30B480C494FF000028842B8BF3A
:1002000040F8042BFADB00F015F801F0C1FA00BF4A
:100210000837BD4680BD00BF6A1D000800000020F1
:100220001C0000201C0000204000002080B400AF13
:10023000FEE700BF80B500AF174A174B1B6843F0BD
:10024000010313601449144B5A68144B13404B605C
:10025000114A114B1B6823F0847323F4803313601D
:100260000D4A0D4B1B6823F4802313600A4A0A4B86
:100270005B6823F4FE035360074B4FF41F029A6040
:10028000054B0022DA6200F00DF8054B4FF00062DA
:100290009A6000BF80BD00BF001002400000FFF860
:1002A00000ED00E080B500AF00F002F800BF80BDB7
:1002B00080B483B000AF00237B6000233B60304AF2
:1002C0002F4B1B6843F4803313602D4B1B6803F4E2
:1002D00000333B607B6801337B603B68002B03D1BC
:1002E0007B68B3F5A06FF0D1254B1B6803F4003396
:1002F000002B02D001233B6001E000233B603B6800
:10030000012B37D11E4A1E4B5B6853601C4A1C4BA5
:100310005B6853601A4A1A4B5B685360184A184B63
:100320005B6823F47C135360154A154B5B6843F4F8
:1003300098135360124A124B1B6843F0807313608A
:1003400000BF0F4B1B6803F00073002BF9D00C4A61
:100350000B4B5B6823F003035360094A084B5B684F
:1003600043F00203536000BF054B5B6803F00C03CE
:10037000082BF9D100BF0C37BD4680BC704700BFC9
:100380000010024080B489B000AF7860396000236B
:10039000FB6100233B610023BB610023FB60002362
:1003A0007B610023BB603B68DB7803F00F03FB61DC
:1003B0003B68DB7803F01003002B05D03B689B788B
:1003C0001A46FB691343FB613B681B88DBB2002BB9
:1003D00044D07B681B687B610023BB6138E001224D
:1003E000BB6902FA03F3FB603B681B881A46FB6893
:1003F00013403B613A69FB689A4226D1BB699B0076
:10040000FB600F22FB6802FA03F3BB60BB68DB43AF
:100410007A6913407B61FA69FB6802FA03F37A692F
:1004200013437B613B68DB78282B05D10122BB6934
:100430009A407B685A6108E03B68DB78482B04D11E
:100440000122BB699A407B681A61BB690133BB61B9
:10045000BB69072BC3D97B687A691A603B681B8824
:10046000FF2B46D97B685B687B610023BB613AE068
:10047000BB690833012202FA03F3FB603B681B8867
:100480001A46FB6813403B613A69FB689A4227D1E0
:10049000BB699B00FB600F22FB6802FA03F3BB60A1
:1004A000BB68DB437A6913407B61FA69FB6802FA37
:1004B00003F37A6913437B613B68DB78282B05D112
:1004C000BB69083301229A407B685A613B68DB783C
:1004D000482B05D1BB69083301229A407B681A6119
:1004E000BB690133BB61BB69072BC1D97B687A69E2
:1004F0005A6000BF2437BD4680BC704780B483B0CB
:1005000000AF78607B684FF6FF721A807B6802222A
:100510009A707B680422DA7000BF0C37BD4680BC3D
:10052000704700BF80B485B000AF78600B467B8019
:100530000023FB737B689A687B881340002B02D0F2
:100540000123FB7301E00023FB73FB7B1846143788
:10055000BD4680BC704700BF80B483B000AF7860F8
:100560000B467B807A887B681A6100BF0C37BD46DA
:1005700080BC704780B483B000AF78600B467B804E
:100580007A887B685A6100BF0C37BD4680BC7047D3
:1005900080B483B000AF78600B467B807A887B683C
:1005A000DA6000BF0C37BD4680BC704780B483B0B2
:1005B00000AF0346FB71084997F907305B09FA79E8
:1005C00002F01F02012000FA02F241F8232000BFCE
:1005D0000C37BD4680BC704700E100E080B582B0BA
:1005E00000AF78607B68092B3ED801A252F823F057
:1005F000190600082106000829060008310600082F
:10060000390600084106000849060008510600089E
:100610005906000861060008154801F055F923E065
:10062000144801F051F91FE0134801F04DF91BE0A7
:10063000124801F049F917E0114801F045F913E0BB
:10064000104801F041F90FE00F4801F03DF90BE0CF
:100650000E4801F039F907E00D4801F035F903E0E3
:100660000C4801F031F900BF00BF0837BD4680BD1E
:100670000C1D0008101D0008141D0008181D00089E
:100680001C1D0008201D0008241D0008281D00084E
:100690002C1D0008301D000880B500AF01219048D6
:1006A000FFF784FD8F4B1B6801338E4A13608D4B1F
:1006B0001B68C3F13C038C4A13608C4B1B68122BE4
:1006C00003DD8B4B1B68282B07DC884B1B68072B33
:1006D00003DD864B1B68132B03DD864B01221A605A
:1006E00002E0844B00221A60804B1B68082B0ED15D
:1006F0007F4B1B68002B0ADB7D4B1B682C2B06DC19
:100700007B4B1B68C3F12C037B4A13607AE1774B68
:100710001B68082B0ED1764B1B68312B0ADD744BFE
:100720001B683A2B06DC724B1B68C3F15E03724AEE
:10073000136067E16D4B1B68092B0ED16C4B1B6876
:10074000002B0ADB6A4B1B68222B06DC684B1B68FC
:10075000C3F12203684A136054E1644B1B68092B00
:100760000ED1634B1B682C2B0ADD614B1B683A2BA7
:1007700006DC5F4B1B68C3F159035F4A136041E11C
:100780005A4B1B680A2B0ED1594B1B68002B0ADBF6
:10079000574B1B681D2B06DC554B1B68C3F11D0313
:1007A000554A13602EE1514B1B680A2B07D1504B61
:1007B0001B68222B03DD4E4B1B683A2B0BDD4B4B8A
:1007C0001B680D2B0ED14A4B1B68222B0ADD484BB0
:1007D0001B683A2B06DC464B1B68C3F14F03464AA5
:1007E00013600FE1414B1B680B2B0ED1404B1B6874
:1007F000002B0ADB3E4B1B68132B06DC3C4B1B68B3
:10080000C3F113033C4A1360FCE0384B1B680B2B0D
:100810000ED1374B1B681D2B0ADD354B1B683A2B5D
:1008200006DC334B1B68C3F14A03334A1360E9E02B
:100830002E4B1B680C2B0ED12D4B1B68002B0ADB9B
:100840002B4B1B680E2B06DC294B1B68C3F10E03D8
:10085000294A1360D6E0254B1B680C2B07D1244B8B
:100860001B68132B03DD224B1B683A2B0BDD1F4B40
:100870001B680F2B0ED11E4B1B68132B0ADD1C4B64
:100880001B683A2B06DC1A4B1B68C3F140031A4A5B
:100890001360B7E0154B1B680D2B0ED1144B1B6872
:1008A000002B0ADB124B1B68042B06DC104B1B6869
:1008B000C3F10403104A1360A4E00C4B1B680E2B19
:1008C0001CD10B4B1B68002B18DB094B1B68132B2F
:1008D00014DC074B1B68C3F11303074A136091E054
:1008E00000040040000000203C0000200800002020
:1008F0000400002020000020380000208D4B1B68E1
:100900000E2B0ED18C4B1B68182B0ADD8A4B1B68F3
:100910003A2B06DC884B1B68C3F14503874A1360FA
:1009200070E0844B1B680F2B0ED1834B1B68002B90
:100930000ADB814B1B68092B06DC7F4B1B68C3F16C
:1009400009037E4A13605DE07A4B1B68102B0ED1C1
:10095000794B1B68002B0ADB774B1B68042B06DCEA
:10096000754B1B68C3F10403744A13604AE0714B72
:100970001B68102B0ED1704B1B68092B0ADD6E4BC8
:100980001B68362B06DC6C4B1B68C3F136036B4AC5
:10099000136037E0674B1B68112B0ED1664B1B6849
:1009A000042B0ADD644B1B68312B06DC624B1B6891
:1009B000C3F13103614A136024E05E4B1B68112BC5
:1009C0000ED15D4B1B68362B0ADD5B4B1B683A2B47
:1009D00006DC594B1B68C3F16303584A136011E0EE
:1009E000544B1B68122B0DD1534B1B68002B09DB9A
:1009F000514B1B68272B05DC4F4B1B68C3F12703AA
:100A00004E4A13604B4B1B68082B0ED14A4B1B6898
:100A10002C2B0ADD484B1B68312B06DC464B1B6830
:100A2000C3F13103454A1360D5E0424B1B680A2BE2
:100A30000ED1414B1B681D2B0ADD3F4B1B68222B3F
:100A400006DC3D4B1B68C3F122033C4A1360C2E045
:100A5000384B1B680C2B0ED1374B1B680E2B0ADD55
:100A6000354B1B68132B06DC334B1B68C3F1130398
:100A7000324A1360AFE02F4B1B680E2B0ED12E4B6A
:100A80001B68132B0ADD2C4B1B68182B06DC2A4B2A
:100A90001B68C3F11803294A13609CE0254B1B68AF
:100AA000102B0ED1244B1B68042B0ADD224B1B6834
:100AB000092B06DC204B1B68C3F109031F4A136096
:100AC00089E01C4B1B68112B0ED11B4B1B68312B73
:100AD0000ADD194B1B68362B06DC174B1B68C3F16C
:100AE0003603164A136076E0124B1B68092B0ED1B1
:100AF000114B1B68222B0ADD0F4B1B682C2B06DCCD
:100B00000D4B1B68C3F12C030C4A136063E0094BC7
:100B10001B680B2B14D1084B1B68132B10DD064BE5
:100B20001B681D2B0CDC044B1B68C3F11D03034A1F
:100B3000136050E00800002004000020380000206E
:100B4000354B1B68102B0ED1344B1B68362B0ADD3E
:100B5000324B1B683A2B06DC304B1B68C3F10E038B
:100B60002F4A136037E02C4B1B68112B0ED12B4BF7
:100B70001B68002B0ADB294B1B68042B06DC274B68
:100B80001B68C3F10403264A136024E0224B1B6850
:100B90000F2B0ED1214B1B68092B0ADD1F4B1B6845
:100BA000132B06DC1D4B1B68C3F113031C4A136097
:100BB00011E0194B1B680D2B0DD1184B1B68042B32
:100BC00009DD164B1B68222B05DC144B1B68C3F197
:100BD0002203134A1360134B1B683B2B1ADD114B86
:100BE00000221A600D4B1B6801330C4A13600B4B3B
:100BF0001B683B2B0EDD094B00221A60064B1B685D
:100C00000133054A1360044B1B68172B02DD024BAE
:100C100000221A6000BF80BD0800002004000020F0
:100C2000380000200000002080B500AF0021012026
:100C300000F06CFE934B1B68082B07D1924B1B688E
:100C4000002B03DB904B1B682C2B17DD8D4B1B6897
:100C5000082B07D18C4B1B68312B03DD8A4B1B689B
:100C60003B2B0BDD874B1B68092B17D1864B1B6871
:100C7000002B13DB844B1B68222B0FDC834800F016
:100C800023FE834800F020FE824800F01DFE8048CD
:100C900000F01AFE7E4800F017FE5EE1794B1B68FB
:100CA000092B07D1784B1B682C2B03DD764B1B6877
:100CB0003B2B23DD734B1B680A2B07D1724B1B6840
:100CC000002B03DB704B1B681D2B17DD6D4B1B6866
:100CD0000A2B07D16C4B1B68222B03DD6A4B1B6868
:100CE0003B2B0BDD674B1B680B2B17D1664B1B682F
:100CF000002B13DB644B1B68132B0FDC634800F0E5
:100D0000E3FD634800F0E0FD634800F0DDFD60486E
:100D100000F0DAFD5E4800F0D7FD1EE1594B1B687C
:100D20000B2B07D1584B1B681D2B03DD564B1B6843
:100D30003B2B23DD534B1B680C2B07D1524B1B68FD
:100D4000002B03DB504B1B680E2B17DD4D4B1B6834
:100D50000C2B07D14C4B1B68132B03DD4A4B1B6834
:100D60003B2B0BDD474B1B680D2B17D1464B1B68EC
:100D7000002B13DB444B1B68042B0FDC434800F0B3
:100D8000A3FD434800F0A0FD444800F09DFD40480D
:100D900000F09AFD3E4800F097FDDEE0394B1B68FD
:100DA0000D2B07D1384B1B68222B03DD364B1B68FC
:100DB0003B2B23DD334B1B680E2B07D1324B1B68BB
:100DC000002B03DB304B1B68132B17DD2D4B1B68EF
:100DD0000E2B07D12C4B1B68182B03DD2A4B1B68ED
:100DE0003B2B0BDD274B1B680F2B17D1264B1B68AA
:100DF000002B13DB244B1B68092B0FDC234800F06E
:100E000063FD234800F060FD254800F05DFD2048AB
:100E100000F05AFD1E4800F057FD9EE0194B1B687C
:100E20000F2B07D1184B1B68132B03DD164B1B68C8
:100E30003B2B17DD134B1B68102B07D1124B1B6884
:100E4000002B03DB104B1B68042B0BDD0D4B1B68C9
:100E5000102B29D10C4B1B68092B25DD0A4B1B6875
:100E6000362B21DC094800F02FFD094800F02CFD4D
:100E70000C4800F029FD064800F026FD044800F06B
:100E800023FD6AE00800002004000020341D000853
:100E90003C1D0008101D0008141D0008181D000846
:100EA0001C1D0008201D00082D4B1B68112B07D1AD
:100EB0002C4B1B68042B03DD2A4B1B68312B17DDE1
:100EC000274B1B68112B07D1264B1B68362B03DDE4
:100ED000244B1B683B2B0BDD214B1B68122B17D1BE
:100EE000204B1B68002B13DB1E4B1B68272B0FDCD2
:100EF0001D4800F0E9FC1D4800F0E6FC1C4800F02D
:100F0000E3FC1A4800F0E0FC184800F0DDFC24E0A7
:100F1000134B1B68072B07DD114B1B68122B0DDDD4
:100F2000104B1B68272B09DD124800F0CDFC0F4841
:100F300000F0CAFC104800F0C7FC0EE00F4800F0BB
:100F4000C3FC0A4800F0C0FC084800F0BDFC07489C
:100F500000F0BAFC054800F0B7FC00BF80BD00BF40
:100F60000800002004000020341D00083C1D00087B
:100F7000241D0008401D0008481D00084C1D0008E5
:100F800080B500AF01211148FFF710F9104B1B6825
:100F9000002B18D10F4B1B68002B14D10E4B1B6874
:100FA000002B08D10C4B01221A604FF400410B4872
:100FB000FFF7D2FA07E04FF400410848FFF7DAFAEA
:100FC000054B00221A6000BF80BD00BF001000402A
:100FD000380000203C0000201C000020000C0140D4
:100FE00080B483B000AF78607B680F2B56D801A225
:100FF00052F823F0351000083D1000084510000895
:101000004D100008551000085D100008651000081C
:101010006D100008751000087D100008851000088C
:101020008D1000089D1000089D1000089D100008FC
:10103000951000081D4B01221A602FE01B4B042263
:101040001A602BE0194B07221A6027E0174B0B227E
:101050001A6023E0154B02221A601FE0134B052291
:101060001A601BE0114B08221A6017E00F4B002298
:101070001A6013E00D4B03221A600FE00B4B06229F
:101080001A600BE0094B09221A6007E0074B0D229A
:101090001A6003E0054B0F221A6000BF044B1422B4
:1010A0001A6000BF0C37BD4680BC7047140000209A
:1010B0001000002080B582B000AF01219C48FFF7EE
:1010C00075F83B1D1846FFF719FA0F23BB8048231C
:1010D000FB710223BB713B1D19469648FFF752F97D
:1010E0003B461846FFF70AFAF0233B801023FB70BB
:1010F0000223BB703B4619468E48FFF743F9F021A7
:101100008C48FFF737FA01218A48FFF70BFA0346AC
:10111000002B02D1884B00221A6002218548FFF77C
:1011200001FA0346002B02D1834B04221A600421EA
:101130008048FFF7F7F90346002B02D17E4B0822C7
:101140001A6008217B48FFF7EDF90346002B02D116
:10115000794B0C221A603B1D1846FFF7CFF90F237D
:10116000BB801023FB710223BB713B1D19467148E4
:10117000FFF708F90F216F48FFF7FCF93B461846C7
:10118000FFF7BCF9F0233B804823FB700223BB70C0
:101190003B4619466748FFF7F5F810216548FFF709
:1011A000C1F90346002B03D1634B1B68624A1360ED
:1011B00020216048FFF7B6F90346002B04D15E4BAF
:1011C0001B6801335C4A136040215A48FFF7AAF9B3
:1011D0000346002B04D1584B1B680233564A136058
:1011E00080215448FFF79EF90346002B04D1524B4F
:1011F0001B680333504A136000BF10214D48FFF7AE
:1012000091F90346002BF8D000BF20214948FFF791
:1012100089F90346002BF8D000BF40214548FFF76D
:1012200081F90346002BF8D000BF80214148FFF729
:1012300079F90346002BF8D03F4B1B681846FFF79F
:10124000CFFE3E4B1B68142B00F0FD803B4B1B6810
:101250000B2B07D0394B1B680D2B03D0374B1B686A
:101260000F2B0DD100213648FEF75CFF354B0022D5
:101270001A60354B01221A60304B1B68334A1360E9
:10128000324B1B680F2B14D1314B01221A60314BAA
:1012900000221A60304B00221A60304B00221A6084
:1012A0002A4B0B221A60274B00221A60264B012280
:1012B0001A60264B1B680D2B24D1254B01221A6086
:1012C000244B1B68264A1360234B1B68254A136076
:1012D000224B1B68244A13601E4B00221A601E4BCF
:1012E00000221A601D4B00221A60184B00221A605F
:1012F000144B01221A60144B00221A60012110487D
:10130000FEF710FF124B1B68012B2FD10B4B1B68F4
:10131000022B2BDC094B1A6813469B0013445B001D
:101320001A460C4B1A600A4B02221A6088E000BF72
:1013300000080040000801401000002014000020B8
:10134000000400400C00002020000020300000209D
:101350001800002024000020280000202C0000207D
:10136000080000200400002000000020384B1B680B
:10137000022B07D1374B1B680A2B03DC364B1B684B
:10138000092B0BDD324B1B68022B12D1314B1B6832
:10139000142B0ED1304B1B68032B0ADC2C4B032281
:1013A0001A602C4B1A682C4B1B681344294A136093
:1013B00046E0274B1B68032B10D1274B1B68052BDE
:1013C0000CDC234B04221A60234B1A6813469B0043
:1013D00013445B001A46214B1A6031E01C4B1B681A
:1013E000042B0AD11A4B05221A601C4B1A681A4B9F
:1013F0001B681344194A136022E0154B1B68052B28
:1014000010D1154B1B68052B0CDC114B06221A6002
:10141000114B1A6813469B0013445B001A46104B8D
:101420001A600DE00A4B1B68062B09D1084B0122FC
:101430001A600B4B1A68084B1B681344084A136068
:10144000054B14221A6000BF0837BD4680BD00BF9F
:101450001800002024000020140000202800002094
:101460002C00002080B500AF01214FF08040FEF736
:101470009DFEB94B1B68012B76D10821002000F09E
:1014800045FAB64B1B68B64A82FB03129210DB1773
:10149000D31A1846FFF7A2F80921002000F036FA07
:1014A000AE4B1A68AE4B83FB02139910D317C91ABF
:1014B0000B469B000B445B00D11A0846FFF78EF8E1
:1014C0000A21002000F022FAA64800F0FDF90B21C5
:1014D000002000F01BFAA44B1B68A14A82FB0312F8
:1014E0009210DB17D31A1846FFF778F80C2100206A
:1014F00000F00CFA9C4B1A68994B83FB021399106D
:10150000D317C91A0B469B000B445B00D11A08463F
:10151000FFF764F80D21002000F0F8F9914800F081
:10152000D3F90E21002000F0F1F9904B1B688C4A92
:1015300082FB03129210DB17D31A1846FFF74EF8FE
:101540000F21002000F0E2F9884B1A68844B83FBDE
:1015500002139910D317C91A0B469B000B445B006A
:10156000D11A0846FFF73AF8FFF75EFB804B1B687D
:10157000002B4DD10B21022000F0C8F97D4B1B68D8
:10158000774A82FB03129210DB17D31A1846FFF733
:1015900025F80C21022000F0B9F9764B1A68704B3F
:1015A00083FB02139910D317C91A0B469B000B44F7
:1015B0005B00D11A0846FFF711F80D21022000F058
:1015C000A5F9684800F080F90E21022000F09EF98C
:1015D000694B1B68624A82FB03129210DB17D31A15
:1015E0001846FEF7FBFF0F21022000F08FF9624B37
:1015F0001A685B4B83FB02139910D317C91A0B4669
:101600009B000B445B00D11A0846FEF7E7FF22E07F
:101610000B21022000F07AF9584800F055F90C210E
:10162000022000F073F9554800F04EF90D21022018
:1016300000F06CF9514800F047F90E21022000F04B
:1016400065F94E4800F040F90F21022000F05EF9E4
:101650004A4800F039F94A4B1B680B2B03D0484B22
:101660001B680F2B76D10821002000F04FF9454B65
:101670001B683B4A82FB03129210DB17D31A1846F1
:10168000FEF7ACFF0921002000F040F93D4B1A683D
:10169000334B83FB02139910D317C91A0B469B00D7
:1016A0000B445B00D11A0846FEF798FF0A21002080
:1016B00000F02CF92B4800F007F90B21002000F076
:1016C00025F9314B1B68264A82FB03129210DB1767
:1016D000D31A1846FEF782FF0C21002000F016F9FD
:1016E000294B1A681E4B83FB02139910D317C91A92
:1016F0000B469B000B445B00D11A0846FEF76EFFB9
:101700000D21002000F002F9164800F0DDF80E214E
:10171000002000F0FBF81D4B1B68114A82FB0312EE
:101720009210DB17D31A1846FEF758FF0F2100203E
:1017300000F0ECF8154B1A68094B83FB0213991063
:10174000D317C91A0B469B000B445B00D11A0846FD
:10175000FEF744FF00BF80BD0C0000200800002001
:1017600067666666541D0008040000200000002023
:1017700020000020380000203C0000203C1D000814
:101780003000002024000020280000202C00002031
:1017900080B582B000AF0121082000F05BFA012182
:1017A000042000F057FA3B1D1846FEF7A7FE102351
:1017B000FB714FF40043BB800223BB713B1D1946F4
:1017C0003B48FEF7DFFDFEF735FD00F0F9F900F0CC
:1017D00039FA0021002000F099F8364800F074F83A
:1017E0000021022000F092F8334800F06DF801214A
:1017F000102000F04DFA0121042000F049FA0121E7
:10180000022000F045FA0121012000F041FA2B4BA3
:1018100001221A85294B64229A8501220121274839
:10182000FEF7A0FC01212548FEF77CFC3620FEF7E0
:10183000BDFE234B64221A85214B64229A85012226
:1018400001211F48FEF78EFC01211D48FEF76AFCAE
:101850001E20FEF7ABFE1B4B4FF416621A85194B88
:1018600042F210729A85012201211648FEF77AFC95
:1018700001211448FEF756FC1D20FEF797FE4FF09D
:1018800080434FF416621A854FF0804342F2107283
:101890009A85012201214FF08040FEF763FC01216F
:1018A0004FF08040FEF73EFC1C20FEF77FFEFEE777
:1018B000000C0140581D0008601D00080010004089
:1018C000000800400004004080B584B000AF78609C
:1018D0000EE0FB7BBF2B07D9FB7BC03B0A4AD35CE6
:1018E000184600F0F1F803E0FB7B184600F0ECF836
:1018F0007B685A1C7A601B78FB73FB7B002BE8D15A
:1019000000BF1037BD4680BDCC1C000880B582B03A
:1019100000AF03460A46FB711346BB71FB79032BEC
:1019200036D801A252F823F03919000849190008E5
:101930006119000879190008BB7963F07F03DBB2F5
:10194000184600F043F823E0BB794033DBB25BB2CA
:1019500063F07F035BB2DBB2184600F037F817E0A4
:10196000BB791033DBB25BB263F07F035BB2DBB2F7
:10197000184600F02BF80BE0BB795033DBB25BB2BA
:1019800063F07F035BB2DBB2184600F01FF800BFC4
:1019900000BF0837BD4680BD80B582B000AF0121D1
:1019A000082000F057F94FF4FE53BB801023FB7161
:1019B0000323BB713B1D19460348FEF7E3FC00BF40
:1019C0000837BD4680BD00BF000C014080B582B025
:1019D00000AF0346FB71FFF7DFFF394B45F6C052FE
:1019E0001A6000BF364B1B685A1E35490A60002B2F
:1019F000F8D1344A334BDB6823F48053D360FB794E
:101A00001B09DBB29BB29B019BB219462D48FEF726
:101A1000BFFD2C4A2B4BDB6843F48063D360284B1B
:101A20000A221A6000BF264B1B685A1E24490A600E
:101A3000002BF8D1234A234BDB6823F48063D36067
:101A400000212048FEF7A4FDFB799B019BB203F423
:101A500070739BB219461B48FEF79AFD184B0A2279
:101A60001A6000BF164B1B685A1E15490A60002BEE
:101A7000F8D1144A134BDB6843F48063D360104BF6
:101A80000A221A6000BF0E4B1B685A1E0C490A60DE
:101A9000002BF8D10B4A0B4BDB6823F48063D36037
:101AA000084A084BDB6823F48053D360054A054B92
:101AB000DB6823F40063D36000BF0837BD4680BDF8
:101AC00034000020000C014080B582B000AF034616
:101AD000FB71FFF761FFFB791B09DBB29BB29B0136
:101AE0009BB219463448FEF753FD334A324BDB684C
:101AF00043F48063D360304A2F4BDB6843F4805358
:101B0000D3602E4B0A221A6000BF2C4B1B685A1E52
:101B10002A490A60002BF8D1274A274BDB6823F4B7
:101B20008063D36000212448FEF732FDFB799B01DE
:101B30009BB203F470739BB219461F48FEF728FD51
:101B40001E4B0A221A6000BF1C4B1B685A1E1B4901
:101B50000A60002BF8D1184A174BDB6843F4806306
:101B6000D360154A144BDB6843F48053D360134BA6
:101B70000A221A6000BF114B1B685A1E0F490A60E7
:101B8000002BF8D10C4A0C4BDB6823F48063D36044
:101B9000094A094BDB6823F48053D360064A064B9D
:101BA000DB6823F40063D36000210348FEF7F0FCF8
:101BB00000BF0837BD4680BD000C01403400002046
:101BC00080B500AFFFF7E8FE1C4B1D4A1A6000BF4E
:101BD0001A4B1B685A1E19490A60002BF8D12020A5
:101BE000FFF7F4FE154B164A1A6000BF134B1B6833
:101BF0005A1E12490A60002BF8D10F20FFF7E6FEAB
:101C00000E4B0F4A1A6000BF0C4B1B685A1E0B4943
:101C10000A60002BF8D10120FFF7D8FE074B084AD5
:101C20001A6000BF054B1B685A1E04490A60002B4E
:101C3000F8D10420FFF7CAFE00BF80BD34000020A9
:101C40004019010080B500AF0120FFF7BFFE00BFC3
:101C500080BD00BF80B483B000AF78600B46FB70DE
:101C6000FB78002B06D00949084B9A697B6813431F
:101C70008B6106E00549054B9A697B68DB4313409D
:101C80008B6100BF0C37BD4680BC7047001002401E
:101C900080B483B000AF78600B46FB70FB78002BFC
:101CA00006D00949084BDA697B681343CB6106E02B
:101CB0000549054BDA697B68DB431340CB6100BF04
:101CC0000C37BD4680BC70470010024041A042A1C5
:101CD000E045A3A4A5A64BA74D484FA8504354A93F
:101CE000AA58E1ABACE2ADAE62AFB0B161B2B3B491
:101CF000E365B6B7B8B9BABBBCBD6FBE7063BF7998
:101D0000E478E5C0C1E6C2C3C4C5C6C73000000060
:101D100031000000320000003300000034000000F9
:101D200035000000360000003700000038000000D9
:101D300039000000C7E0EDFFF2E8E50020000000F8
:101D4000C7E0EDFFF2E8E900EDE5F200CFE5F0E5F0
:101D5000F0FBE2003A000000C2F0E5ECFF3A0000C0
:0A1D6000CEF1F2E0EBEEF1FC3A00E8
:101D6A00370000002C0000000800000001000000FD
:0C1D7A0014000000140000000100000034
:0400000508000000EF
:00000001FF
