:060000000A128A11122809
:10000800FE00030EF0000408F1000A08F200831253
:1000180003137F08F3000A128A11A22C0A128A110C
:1000280015288313E030FD000730FE004630FF003E
:10003800A03084000A128A11EE270A128A1137307A
:1000480084004C300A128A11BD26F801F901830197
:100058000A128A112F28831603138601FF30831290
:10006800031386008B170B178B16073083160313A1
:1000780081008312031381011014831603130C14D7
:100088008312031390109016101685308F00EE30EF
:100098008E001215831603138C1483120313921403
:1000A8001214910100300A128A110B250A128A11C2
:1000B800F60101300A128A1186270A128A110430C1
:1000C80083120313AE002E08AF000230AE002E08D4
:1000D800B0001130AE002E08B100B201B20A1130E2
:1000E800AE002E08B3000230AE002E08B400043073
:1000F800AE002E08B500B601A90100300A128A1117
:10010800C4270A128A111A3083120313A9008030F7
:10011800AA000A128A11C8250A128A118312031327
:10012800A901A90A00300A128A11C4270A128A11E1
:10013800123083120313A9008030AA000A128A1110
:10014800C8250A128A11023083120313AE002E0842
:10015800A90000300A128A11C4270A128A110A302B
:1001680083120313A9008030AA000A128A11C82535
:100178000A128A11033083120313AE002E08A90055
:1001880000300A128A11C4270A128A110130831218
:100198000313A9008030AA000A128A11C8250A127E
:1001A8008A11033083120313AE002E08A9000A3007
:1001B8000A128A11C4270A128A112F3083120313D4
:1001C800A9000030AA000A128A11C8250A128A1149
:1001D80083120313A90108300A128A11C4270A12CC
:1001E8008A110A30F4000030F5008312031347081F
:1001F800F7004608F6000A128A116D250A128A11BC
:10020800750883120313AD007408AC000A128A1132
:1002180015240A128A1183120313A90109300A123C
:100228008A11C4270A128A110A30F4000030F50036
:10023800831203134708F7004608F6000A128A11CA
:1002480070260A128A11750883120313AD00740808
:10025800AC000A128A1115240A128A118312031398
:10026800A9010A300A128A11C4270A128A113530E4
:1002780083120313A9008030AA000A128A11C82524
:100288000A128A1183120313A9010B300A128A1168
:10029800C4270A128A110A30F4000030F5008312CC
:1002A80003134908F7004808F6000A128A116D2559
:1002B8000A128A11750883120313AD007408AC0082
:1002C8000A128A1115240A128A1183120313A9012A
:1002D8000C300A128A11C4270A128A110A30F40053
:1002E8000030F500831203134908F7004808F600A8
:1002F8000A128A1170260A128A11750883120313CA
:10030800AD007408AC000A128A1115240A128A1169
:1003180083120313A9010D300A128A11C4270A1285
:100328008A11353083120313A9008030AA000A12FB
:100338008A11C8250A128A1183120313A9010E30E3
:100348000A128A11C4270A128A110A30F4000030EE
:10035800F500831203134B08F7004A08F6000A1247
:100368008A116D250A128A11750883120313AD00CC
:100378007408AC000A128A1115240A128A11831211
:100388000313A9010F300A128A11C4270A128A110D
:100398000A30F4000030F500831203134B08F7000D
:1003A8004A08F6000A128A1170260A128A1175087C
:1003B80083120313AD007408AC000A128A111524C5
:1003C8000A128A11831203134708C1004608C000A5
:1003D8004908C3004808C2004B08C5004A08C400C1
:1003E8003E033F04031D0C2B0230AE002E08A9006B
:1003F80008300A128A11C4270A128A110A30F40036
:100408000030F500831203134108F7004008F60096
:100418000A128A116D250A128A11750883120313AC
:10042800AD007408AC000A128A1115240A128A1148
:10043800023083120313AE002E08A90009300A12F5
:100448008A11C4270A128A110A30F4000030F50014
:10045800831203134108F7004008F6000A128A11B4
:1004680070260A128A11750883120313AD007408E6
:10047800AC000A128A1115240A128A11023083125A
:100488000313AE002E08A9000A300A128A11C427E5
:100498000A128A11353083120313A9008030AA008A
:1004A8000A128A11C8250A128A110230831203130C
:1004B800AE002E08A9000B300A128A11C4270A12AE
:1004C8008A110A30F4000030F50083120313430840
:1004D800F7004208F6000A128A116D250A128A11DD
:1004E800750883120313AD007408AC000A128A1150
:1004F80015240A128A11023083120313AE002E0843
:10050800A9000C300A128A11C4270A128A110A306B
:10051800F4000030F500831203134308F700420883
:10052800F6000A128A1170260A128A1175088312B7
:100538000313AD007408AC000A128A1115240A12BC
:100548008A11023083120313AE002E08A9000D3061
:100558000A128A11C4270A128A113530831203132A
:10056800A9008030AA000A128A11C8250A128A1125
:10057800023083120313AE002E08A9000E300A12AF
:100588008A11C4270A128A110A30F4000030F500D3
:10059800831203134508F7004408F6000A128A116B
:1005A8006D250A128A11750883120313AD007408A9
:1005B800AC000A128A1115240A128A110230831219
:1005C8000313AE002E08A9000F300A128A11C4279F
:1005D8000A128A110A30F4000030F500831203135E
:1005E8004508F7004408F6000A128A1170260A1214
:1005F8008A11750883120313AD007408AC000A123F
:100608008A1115240A128A1183120313BE01BF012D
:100618003C033D04031DEC28A901A90A08300A126D
:100628008A11C4270A128A110A30F4000030F50032
:10063800831203134108F7004008F6000A128A11D2
:100648006D250A128A11750883120313AD00740808
:10065800AC000A128A1115240A128A118312031394
:10066800A901A90A09300A128A11C4270A128A1193
:100678000A30F4000030F500831203134108F70034
:100688004008F6000A128A1170260A128A117508A3
:1006980083120313AD007408AC000A128A111524E2
:1006A8000A128A1183120313A901A90A0A300A122D
:1006B8008A11C4270A128A11353083120313A9003C
:1006C8008030AA000A128A11C8250A128A118312D8
:1006D8000313A901A90A0B300A128A11C4270A12A6
:1006E8008A110A30F4000030F5008312031343081E
:1006F800F7004208F6000A128A116D250A128A11BB
:10070800750883120313AD007408AC000A128A112D
:1007180015240A128A1183120313A901A90A0C309D
:100728000A128A11C4270A128A110A30F40000300A
:10073800F500831203134308F7004208F6000A1273
:100748008A1170260A128A11750883120313AD00E4
:100758007408AC000A128A1115240A128A1183122D
:100768000313A901A90A0D300A128A11C4270A1213
:100778008A11353083120313A9008030AA000A12A7
:100788008A11C8250A128A1183120313A901A90A1A
:100798000E300A128A11C4270A128A110A30F4008C
:1007A8000030F500831203134508F7004408F600EB
:1007B8000A128A116D250A128A1175088312031309
:1007C800AD007408AC000A128A1115240A128A11A5
:1007D80083120313A901A90A0F300A128A11C42728
:1007E8000A128A110A30F4000030F500831203134C
:1007F8004508F7004408F6000A128A1170260A1202
:100808008A11750883120313AD007408AC000A122C
:100818008A1115240A128A1183120313BC01BD011F
:10082800EC287A2C213083120313A9008030AA0007
:100838000A128A11C8250800233083120313A9005D
:100848008030AA000A128A11C825080025308312B0
:100858000313A9008030AA000A128A11C8250800CB
:10086800273083120313A9008030AA000A128A11C4
:10087800C8250800293083120313A9008030AA0074
:100888000A128A11C82508002B3083120313A90005
:100898008030AA000A128A11C82508002D30831258
:1008A8000313A9008030AA000A128A11C82508007B
:1008B8002F3083120313A9008030AA000A128A116C
:1008C800C8250800313083120313A9008030AA001C
:1008D8000A128A11C8250800333083120313A900AD
:1008E8008030AA000A128A11C8250800831203134F
:1008F8002D08003A0319812CA12C2C08003A031961
:10090800162C013A0319202C033A03192A2C013A10
:100918000319342C073A03193E2C013A0319482CC1
:10092800033A0319522C013A03195C2C0F3A0319A4
:10093800662C013A0319702CA12C08000C1CE82C19
:1009480085308F00EE308E000C100130CA07031876
:10095800CB0A0030CB074B08803AFF0080307F027B
:10096800031DB82C3C304A02031CE82C83120313E5
:10097800CA01CB010130C8070318C90A0030C907EA
:100988004908803AFF0080307F02031DCD2C3C309F
:100998004802031CE82C83120313C801C901013063
:1009A800C6070318C70A0030C7074708803AFF0080
:1009B80080307F02031DE22C18304602031CE82C0D
:1009C80083120313C601C7010B1DF42C83120313F2
:1009D80081010B110618F42C0130BE000030BF0055
:1009E800831203138C1C002D91018C108619002D85
:1009F8000130BC000030BD007308FF0072088A0097
:100A080071088400700E8300FE0E7E0E09008312AA
:100A18000313AB00273083120313AA00F430A90094
:100A2800A90B142DAA0B142D0000F0308312031308
:100A3800A9002908831603138805081308128812C9
:100A4800F03083120313A9002908880508138812B7
:100A58000812831203130817881400008312031363
:100A6800081300000A128A1121260A128A11F601B7
:100A780028300A128A1186270A128A11F60183126F
:100A880003132B080C380A128A1186270A128A11B6
:100A9800F60140300A128A1186270A128A11831237
:100AA8000313AC0140302C0203180800F601F60AC3
:100AB8002C08A03E8400831300080A128A11862796
:100AC8000A128A11013083120313A9002908AC07FE
:100AD800562D83120313A201F51F792DF409F50988
:100AE800F40A0319F50AA201A20AF71F842DF609D0
:100AF800F709F60A0319F70A0130A0002008A20630
:100B0800A301A401740875040319BB2DA101A10A4E
:100B1800F51B9A2D01300310F40DF50DFF3E031D52
:100B28008F2D0130A0002008A1078C2D0130031063
:100B3800A30DA40DFF3E031D9B2D75087702031D11
:100B4800A72D74087602031CB02D7408F6027508E8
:100B5800031CF703F702231401300310F50CF40CFF
:100B6800FF3E031DB12D0130A102031D9A2D22085D
:100B78000319C32DA309A409A30A0319A40A240865
:100B8800F5002308F4000800831203132A08FF0065
:100B9800290884000A128A1100270A128A11003AC9
:100BA80003190800831203132A08FF002908840088
:100BB8000A128A1100270A128A11253A031D082EE3
:100BC8000130A9070318AA0A2A08FF002908840087
:100BD8000A128A1100270A128A11D03EF7007708F4
:100BE800AB00AB1B002E2B08803A783E0318002E72
:100BF800F601F60A2B08152EF601F60A25300A1218
:100C08008A1186270A128A11F601F60A831203133B
:100C18002A08FF00290884000A128A1100270A12EC
:100C28008A110A128A1186270A128A110130831240
:100C38000313A9070318AA0AC82D83120313A201D4
:100C48000F30F40074088316031388048312031307
:100C5800881608128312031308178312031308084F
:100C6800F4007408A2002208F40003300310F40D05
:100C7800FF3E031D3A2E0310740DF5007508A200FF
:100C88008312031308130000831203130817831237
:100C980003130808F4007408A1000F30F400740866
:100CA800A10522082104F4007408A2002208803952
:100CB800F4007408A00083120313081300008312C1
:100CC80003132008031D2E2E8812F030F400740838
:100CD800831603138805080083120313A201F71F64
:100CE8007C2EF609F709F60A0319F70AA201A20AE7
:100CF800F51F832EF409F509F40A0319F50A740897
:100D080075040319B02EA101A10AF51B972E013015
:100D18000310F40DF50DFF3E031D8C2E0130A000CD
:100D28002008A107892E75087702031D9D2E7408D7
:100D38007602031CA52E7408F6027508031CF70337
:100D4800F70201300310F50CF40CFF3E031DA62E2C
:100D58000130A102031D972E22080319B82EF609A7
:100D6800F709F60A0319F70A7708F5007608F40078
:100D7800080064008001840A04060319003404068C
:020D8800BE2E7D
:100E0000FF1B0A2F83137F1883170008840A031916
:100E1000FF0A080007308A000408840A82070034A9
:100E200053346134763469346E346B346F347634D1
:100E300000344B346F347A346C346F34763461342C
:100E400000344B3468346C3479347A346F3476340B
:100E500000344B347234693467346534723400348E
:100E6000303400343134003432340034333400341C
:100E700034340034353400343634003437340034FC
:100E800038340034393400343A3400340C341234F9
:100E900012340C3400340034003400340034043490
:100EA0000E341F340E34043400340034043404345B
:100EB000043404341F340E34043400340A3415343A
:100EC00011340A3404340034003400340A341F343A
:100ED0001F340E3404340034003400340034003441
:100EE0000034003400340034003400340034003462
:100EF0000034003400340034003400340034003452
:100F000000340034003400340034003483120313FE
:100F1000A7002708A30004300310A30CFF3E031D05
:100F20008C2F2308A4002408A50027080F39A3004C
:100F30002308A6007608031D9F2F0812A02F08166D
:100F40008312031308170808F0392504A3002308A7
:100F5000A80028088800000083120313081300006B
:100F60008312031308170808F0392604A300230886
:100F7000A80028088800000083120313081300004B
:100F80000A128A112126080083120313AA001030C6
:100F90002A0203180800D52F2A17E32F1030D12F6B
:100FA0005030F7007708AA07E32F2908003A031901
:100FB000E32F013A0319CC2F033A0319CE2F013A3C
:100FC0000319D02FE32FAA17F6012A080A128A1153
:100FD000862708007E088A007F088200EA270A1216
:100FE0008A118000840A04087D0603190034FF0A70
:060FF0000319FE0AEE2FBA
:02400E00FA3F77
:00000001FF
