:060000000A128A11122809
:10000800FE00030EF5000408F6000A08F700831244
:1000180003137F08F8000A128A113D280A128A1170
:10002800152883132A30FD000230FE002A30FF0015
:10003800203084000A128A111D220A128A110A121B
:100048008A1134220A128A11F9000A128A113522F9
:100058000A128A11FA000A128A1136220A128A1121
:10006800FB000A128A113722FC0083010A128A1146
:10007800F6290C1CA9280C10EA308F0060308E007D
:10008800F0308316031386000F30831203138600A3
:1000980006185028FB01FC010430FB000030FC006E
:1000A80006195A280830FB000030FC000C30FB0011
:1000B8000030FC000F30831603138600F0308312E3
:1000C800031386000608861E71287B08013EFB0084
:1000D8007C080318013E003EFC00061F7B287B08B5
:1000E800023EFB007C080318013E003EFC00861F10
:1000F80085287B08033EFB007C080318013E003E70
:10010800FC0014307B067C04031994287C08FA0050
:100118007B08F9000130A8070318A90A0030A907CD
:100128001430FB000030FC002908803AFF008030C2
:100138007F02031DA12808302802031CA9280430C7
:1001480083120313A8000030A9000B1D40290B11CE
:10015800831203138101143079067A040319F428F1
:100168002808FF3EF30029080318013EFF3EF4006B
:10017800043073067404031DC5287A08A70079089B
:10018800A6002808FF3EF30029080318013EFF3E99
:10019800F400053073067404031DD6287A08A500F8
:1001A8007908A4002808FF3EF30029080318013E37
:1001B800FF3EF400063073067404031DE7287A082E
:1001C800A3007908A200043028062904031DF0289A
:1001D8007A08A1007908A0001430F9000030FA006C
:1001E80088010514A71B01292708F1002608F0003B
:1001F8000A128A114D210A128A11FE30F30073087F
:1002080083120313850588018514A51B1429250865
:10021800F1002408F0000A128A114D210A128A11ED
:10022800FD30F30073088312031385058801051553
:10023800A31B27292308F1002208F0000A128A11BB
:100248004D210A128A11FB30F3007308831203133D
:10025800850588018515A11B3A292108F100200888
:10026800F0000A128A114D210A128A11F730F300A0
:100278007308831203138505780883120313FF009C
:1002880077088A0076088400750E8300FE0E7E0EBD
:100298000900BE293F30F200720883120313880454
:1002A80008000630F200720883120313880408005D
:1002B8005B30F200720883120313880408004F3081
:1002C800F200720883120313880408006630F200F3
:1002D800720883120313880408006D30F200720854
:1002E80083120313880408007D30F2007208831219
:1002F8000313880408000730F200720883120313FE
:10030800880408007F30F2007208831203138804FF
:1003180008006F30F2007208831203138804080083
:100328007730F200720883120313880408007C30C7
:10033800F200720883120313880408003930F200AF
:10034800720883120313880408005E30F2007208F2
:1003580083120313880408007930F20072088312AC
:100368000313880408007130F20072088312031323
:10037800880408007108003A0319C329F529700890
:10038800003A03194E29013A03195529033A03196A
:100398005C29013A03196329073A03196A29013AC2
:1003A80003197129033A03197829013A03197F2996
:1003B8000F3A03198629013A03198D29033A0319BB
:1003C8009429013A03199B29073A0319A229013AEA
:1003D8000319A929033A0319B029013A0319B729BE
:1003E800F529080083160313880183120313880173
:1003F800831603138501FF30831203138500E03051
:100408008B000730831603138100831203138101C5
:100418001014831603130C1483120313901610166A
:10042800EA308F0060308E00182A7E088A007F0824
:10043800820019220A128A118000840A04087D06A3
:1004480003190034FF0A0319FE0A1D2A0734003471
:1004580006340034053400340434003404340034E1
:08046800143400341434003494
:02400E00F23F7F
:00000001FF
