:020000040800F2
:1000000020040020CD0100082D0200082D02000868
:100010002D0200082D0200082D020008000000003B
:100020000000000000000000000000002D02000899
:100030002D020008000000002D0200082D0200081B
:100040002D0200082D0200082D0200082D020008D4
:100050002D0200082D0200082D0200082D020008C4
:100060002D0200082D0200082D0200082D020008B4
:100070002D0200082D0200082D0200082D020008A4
:100080002D0200082D0200082D02000800000000CB
:100090000000000000000000000000002D02000829
:1000A0002D0200082D0200082D0200082D02000874
:1000B000A90800082D020008D90600082D02000832
:1000C0002D0200082D0200082D0200082D02000854
:1000D0002D0200082D0200082D0200082D02000844
:1000E0002D0200082D0200082D020008000000006B
:1000F0000000000000000000000000000000000000
:1001000000000000000000000000000000000000EF
:1001100000000000000000002D0200082D02000871
:100120005FF808F180B483B000AF78600B46FB70D5
:10013000FB78002B08D07B681B889BB243F001033F
:100140009AB27B681A8007E07B681B889BB223F019
:1001500001039AB27B681A8000BF0C37BD4680BC91
:10016000704700BF80B483B000AF78600B467B80DF
:1001700013467B707B78002B08D07B689B899AB2F2
:100180007B8813439AB27B689A8109E07B689B89DC
:100190009AB27B88DB439BB213409AB27B689A8108
:1001A00000BF0C37BD4680BC704700BF80B483B031
:1001B00000AF78600B467B807B88DB439AB27B681C
:1001C0001A8200BF0C37BD4680BC704780B582B034
:1001D00000AF114B7B60114B3B6007E03B681A1D81
:1001E0003A607A68111D796012681A603B680C4A9F
:1001F0009342F3D30B480C494FF000028842B8BF3A
:1002000040F8042BFADB00F015F800F0EBFB00BF20
:100210000837BD4680BD00BF000B0008000000206D
:100220001C0000201C0000201C00002080B400AF37
:10023000FEE700BF80B500AF174A174B1B6843F0BD
:10024000010313601449144B5A68144B13404B605C
:10025000114A114B1B6823F0847323F4803313601D
:100260000D4A0D4B1B6823F4802313600A4A0A4B86
:100270005B6823F4FE035360074B4FF41F029A6040
:10028000054B0022DA6200F00DF8054B4FF00062DA
:100290009A6000BF80BD00BF001002400000FFF860
:1002A00000ED00E080B500AF00F002F800BF80BDB7
:1002B00080B483B000AF00237B6000233B60304AF2
:1002C0002F4B1B6843F4803313602D4B1B6803F4E2
:1002D00000333B607B6801337B603B68002B03D1BC
:1002E0007B68B3F5A06FF0D1254B1B6803F4003396
:1002F000002B02D001233B6001E000233B603B6800
:10030000012B37D11E4A1E4B5B6853601C4A1C4BA5
:100310005B6853601A4A1A4B5B685360184A184B63
:100320005B6823F47C135360154A154B5B6843F4F8
:1003300098135360124A124B1B6843F0807313608A
:1003400000BF0F4B1B6803F00073002BF9D00C4A61
:100350000B4B5B6823F003035360094A084B5B684F
:1003600043F00203536000BF054B5B6803F00C03CE
:10037000082BF9D100BF0C37BD4680BC704700BFC9
:100380000010024080B489B000AF7860396000236B
:10039000FB6100233B610023BB610023FB60002362
:1003A0007B610023BB603B68DB7803F00F03FB61DC
:1003B0003B68DB7803F01003002B05D03B689B788B
:1003C0001A46FB691343FB613B681B88DBB2002BB9
:1003D00044D07B681B687B610023BB6138E001224D
:1003E000BB6902FA03F3FB603B681B881A46FB6893
:1003F00013403B613A69FB689A4226D1BB699B0076
:10040000FB600F22FB6802FA03F3BB60BB68DB43AF
:100410007A6913407B61FA69FB6802FA03F37A692F
:1004200013437B613B68DB78282B05D10122BB6934
:100430009A407B685A6108E03B68DB78482B04D11E
:100440000122BB699A407B681A61BB690133BB61B9
:10045000BB69072BC3D97B687A691A603B681B8824
:10046000FF2B46D97B685B687B610023BB613AE068
:10047000BB690833012202FA03F3FB603B681B8867
:100480001A46FB6813403B613A69FB689A4227D1E0
:10049000BB699B00FB600F22FB6802FA03F3BB60A1
:1004A000BB68DB437A6913407B61FA69FB6802FA37
:1004B00003F37A6913437B613B68DB78282B05D112
:1004C000BB69083301229A407B685A613B68DB783C
:1004D000482B05D1BB69083301229A407B681A6119
:1004E000BB690133BB61BB69072BC1D97B687A69E2
:1004F0005A6000BF2437BD4680BC704780B483B0CB
:1005000000AF78607B684FF6FF721A807B6802222A
:100510009A707B680422DA7000BF0C37BD4680BC3D
:10052000704700BF80B485B000AF78600B467B8019
:100530000023FB737B689A687B881340002B02D0F2
:100540000123FB7301E00023FB73FB7B1846143788
:10055000BD4680BC704700BF80B483B000AF7860F8
:100560000B467B807A887B681A6100BF0C37BD46DA
:1005700080BC704780B483B000AF78600B467B804E
:100580007A887B685A6100BF0C37BD4680BC7047D3
:1005900080B483B000AF0346FB71084997F9073078
:1005A0005B09FA7902F01F02012000FA02F241F819
:1005B000232000BF0C37BD4680BC704700E100E03F
:1005C00080B582B000AF78607B680F2B7ED801A227
:1005D00052F823F0150600081F0600082906000837
:1005E00035060008410600084D06000859060008B7
:1005F000650600086F0600087B06000887060008ED
:10060000930600089F060008A9060008B506000822
:10061000C1060008E7212F48FFF79EFF56E006219C
:100620002C48FFF799FF51E040F263112948FFF78A
:1006300093FF4BE040F227112648FFF78DFF45E07E
:100640004FF4C3712348FFF787FF3FE040F2A51145
:100650002048FFF781FF39E040F2E5111D48FFF720
:100660007BFF33E007211B48FFF776FF2EE040F2C7
:10067000E7111848FFF770FF28E040F2A71115486E
:10068000FFF76AFF22E040F2C7111248FFF764FF4C
:100690001CE04FF4F2710F48FFF75EFF16E0E12116
:1006A0000C48FFF759FF11E04FF4B3710948FFF709
:1006B00053FF0BE040F2E1110648FFF74DFF05E064
:1006C00040F2C1110348FFF747FF00BF00BF0837E2
:1006D000BD4680BD000C014080B582B000AF012155
:1006E0006C48FFF763FD3B1D1846FFF707FF0F231C
:1006F000BB804823FB710223BB713B1D1946664832
:10070000FFF740FE3B461846FFF7F8FEF0233B801C
:100710001023FB700223BB703B4619465E48FFF76F
:1007200031FEF0215C48FFF725FF01215A48FFF711
:10073000F9FE0346002B02D1584B00221A60022119
:100740005548FFF7EFFE0346002B02D1534B04221E
:100750001A6004215048FFF7E5FE0346002B02D142
:100760004E4B08221A6008214B48FFF7DBFE034678
:10077000002B02D1494B0C221A603B1D1846FFF793
:10078000BDFE0F23BB801023FB710223BB713B1DF9
:1007900019464148FFF7F6FD0F213F48FFF7EAFEF3
:1007A0003B461846FFF7AAFEF0233B804823FB7028
:1007B0000223BB703B4619463748FFF7E3FD102183
:1007C0003548FFF7AFFE0346002B03D1334B1B68C0
:1007D000324A136020213048FFF7A4FE0346002B65
:1007E00004D12E4B1B6801332C4A136040212A4848
:1007F000FFF798FE0346002B04D1284B1B680233F9
:10080000264A136080212448FFF78CFE0346002B04
:1008100004D1224B1B680333204A136000BF102110
:100820001D48FFF77FFE0346002BF8D000BF2021B4
:100830001948FFF777FE0346002BF8D000BF402190
:100840001548FFF76FFE0346002BF8D000BF80214C
:100850001148FFF767FE0346002BF8D00F4B1B68CB
:10086000142B08D00D4B1B680D4A13600D4B1B68F1
:1008700001330C4A1360094B14221A60094B1B68A0
:10088000072B02DD074B04221A6000BF0837BD4664
:1008900080BD00BF000800400008014000000020AB
:1008A000040000200800002080B500AF01214FF0B7
:1008B0008040FFF77BFC444B1B68142B22D0434B3A
:1008C0001B68052B03D1404B1B68414A13603F4B0B
:1008D0001B68062B03D13C4B1B683E4A13603B4B05
:1008E0001B68072B03D1384B1B683B4A1360374BFF
:1008F0001B68042B03D1344B1B68384A1360324BFE
:1009000014221A6040F2E7313548FFF733FE4FF406
:1009100080513348FFF72EFE2D4B1B68002B04DB64
:100920002B4B1B681846FFF74BFE4FF480512C48A9
:10093000FFF712FE40F2E7312948FFF71BFE4FF4A4
:1009400000512748FFF716FE224B1B68002B04DBE3
:10095000204B1B681846FFF733FE4FF40051204828
:10096000FFF7FAFD40F2E7311D48FFF703FE4FF4B1
:1009700080411B48FFF7FEFD174B1B68002B04DB73
:10098000154B1B681846FFF71BFE4FF480411448B7
:10099000FFF7E2FD40F2E7311148FFF7EBFD4FF4BE
:1009A00000410F48FFF7E6FD0C4B1B68002B04DBF2
:1009B0000A4B1B681846FFF703FE4FF40041084836
:1009C000FFF7CAFD00BF80BD040000200800002022
:1009D0000C0000201000002014000020180000204F
:1009E000000C014080B582B000AF0121082000F06A
:1009F0004BF80121042000F047F83B1D1846FFF793
:100A00007DFD1023FB714FF6FF73BB800223BB718A
:100A10003B1D19461A48FFF7B5FC0121042000F0E0
:100A200051F80121012000F04DF8164B4FF47A7275
:100A30001A85144B4FF47A729A85012201211148CC
:100A4000FFF790FB01210F48FFF76CFB1E20FFF71B
:100A50009FFD4FF080430A221A854FF080430A22FF
:100A60009A85012201214FF08040FFF77BFB012195
:100A70004FF08040FFF756FB1C20FFF789FDFEE793
:100A8000000C01400008004080B483B000AF7860E3
:100A90000B46FB70FB78002B06D00949084B9A697E
:100AA0007B6813438B6106E00549054B9A697B68B7
:100AB000DB4313408B6100BF0C37BD4680BC7047E1
:100AC0000010024080B483B000AF78600B46FB702A
:100AD000FB78002B06D00949084BDA697B68134381
:100AE000CB6106E00549054BDA697B68DB431340BF
:100AF000CB6100BF0C37BD4680BC70470010024080
:100B000014000000140000000400000004000000B5
:0C0B1000050000000600000007000000C7
:0400000508000000EF
:00000001FF
