:060000000A128A11122809
:10000800FE00030EF0000408F1000A08F200831253
:1000180003137F08F3000A128A111B280A128A1197
:100028001528F401F50183010A128A1176280C1C9F
:100038005728831603130C1C5728831203130C101C
:10004800EA308F0060308E0008186A280130F40703
:100058000318F50A0030F5070A3074067504031909
:100068000610143074067504031986101E307406C1
:1000780075040319061128307406750403198611CE
:100088007508803AFF0080307F02031D4D28293013
:100098007402031C5228831203138601831203136C
:1000A80008186A2852280B198B1E6A280B1183120C
:1000B800810188186A28F401F5010A128A11A4201E
:1000C8000A128A1183120313881C66287308831284
:1000D800FF0072088A0071088400700E8300FE0E0B
:1000E8007E0E0900E0308B00073083160313810071
:1000F8008312031381010B11101490158316031337
:100108000C1483120313901610160C10EA308F008B
:1001180060308E000A128A1194200A128A119328DC
:10012800831603138601FF30831203138600FF3002
:10013800831603138800FC30831203138800080019
:10014800831603138601FF30831203138600FF30E2
:10015800831603138800FC308312031388000800F9
:02400E00F23F7F
:00000001FF
