:020000040800F2
:1000000018040020F90200085903000859030008E9
:1000100059030008590300085903000800000000B4
:10002000000000000000000000000000590300086C
:100030005903000800000000590300085903000894
:100040005903000859030008590300085903000820
:100050005903000859030008590300085903000810
:100060005903000859030008590300085903000800
:1000700059030008590300085903000859030008F0
:100080005903000859030008590300080000000044
:1000900000000000000000000000000059030008FC
:1000A00059030008590300085903000859030008C0
:1000B00059030008BD070008590300085903000848
:1000C00059030008590300085903000859030008A0
:1000D0005903000859030008590300085903000890
:1000E00059030008590300085903000800000000E4
:1000F0000000000000000000000000000000000000
:1001000000000000000000000000000000000000EF
:100110000000000000000000590300085903000817
:100120005FF808F180B485B000AF786039600023D3
:10013000FB817B681B88FB817B682E4A934213D02E
:100140007B682D4A93420FD07B68B3F1804F0BD070
:100150007B682A4A934207D07B68294A934203D09E
:100160007B68284A934208D1FB8923F07003FB8106
:100170003B685A88FB891343FB817B68224A934280
:100180000CD07B68214A934208D0FB8923F440734A
:10019000FB813B68DA88FB891343FB817B68FA8922
:1001A0001A803B689A887B689A853B681A887B68C6
:1001B0001A857B680F4A93420FD07B680E4A9342A0
:1001C0000BD07B68124A934207D07B68114A934256
:1001D00003D07B68104A934204D13B681B7A9AB2E1
:1001E0007B681A867B6801229A8200BF1437BD465D
:1001F00080BC7047002C01400034014000040040E6
:1002000000080040000C00400010004000140040B6
:1002100000400140004401400048014080B483B0E8
:1002200000AF78607B684FF6FF729A807B6800228F
:100230001A807B680022DA807B6800225A807B6803
:1002400000221A7200BF0C37BD4680BC704700BF49
:1002500080B483B000AF78600B46FB70FB78002B56
:1002600008D07B681B889BB243F001039AB27B687D
:100270001A8007E07B681B889BB223F001039AB2C7
:100280007B681A8000BF0C37BD4680BC704700BF3A
:1002900080B483B000AF78600B467B8013467B70E0
:1002A0007B78002B08D07B689B899AB27B881343AC
:1002B0009AB27B689A8109E07B689B899AB27B88B5
:1002C000DB439BB213409AB27B689A8100BF0C3724
:1002D000BD4680BC704700BF80B483B000AF78607B
:1002E0000B467B807B88DB439AB27B681A8200BF17
:1002F0000C37BD4680BC704780B582B000AF114B53
:100300007B60114B3B6007E03B681A1D3A607A68DE
:10031000111D796012681A603B680C4A9342F3D34E
:100320000B480C494FF000028842B8BF40F8042B3C
:10033000FADB00F015F800F0B1FA00BF0837BD464F
:1003400080BD00BFB009000800000020140000209C
:10035000140000201800002080B400AFFEE700BFAA
:1003600080B500AF174A174B1B6843F001031360B9
:100370001449144B5A68144B13404B60114A114BEB
:100380001B6823F0847323F4803313600D4A0D4BF4
:100390001B6823F4802313600A4A0A4B5B6823F42A
:1003A000FE035360074B4FF41F029A60054B002277
:1003B000DA6200F00DF8054B4FF000629A6000BF62
:1003C00080BD00BF001002400000FFF800ED00E01B
:1003D00080B500AF00F002F800BF80BD80B483B0EC
:1003E00000AF00237B6000233B60304A2F4B1B682B
:1003F00043F4803313602D4B1B6803F400333B60E0
:100400007B6801337B603B68002B03D17B68B3F5CD
:10041000A06FF0D1254B1B6803F40033002B02D0F2
:1004200001233B6001E000233B603B68012B37D197
:100430001E4A1E4B5B6853601C4A1C4B5B68536032
:100440001A4A1A4B5B685360184A184B5B6823F4CE
:100450007C135360154A154B5B6843F49813536043
:10046000124A124B1B6843F08073136000BF0F4B9E
:100470001B6803F00073002BF9D00C4A0B4B5B6830
:1004800023F003035360094A084B5B6843F00203FF
:10049000536000BF054B5B6803F00C03082BF9D1D8
:1004A00000BF0C37BD4680BC704700BF0010024043
:1004B00080B489B000AF786039600023FB6100230D
:1004C0003B610023BB610023FB6000237B610023B1
:1004D000BB603B68DB7803F00F03FB613B68DB78B4
:1004E00003F01003002B05D03B689B781A46FB698C
:1004F0001343FB613B681B88DBB2002B44D07B6855
:100500001B687B610023BB6138E00122BB6902FAF2
:1005100003F3FB603B681B881A46FB6813403B6192
:100520003A69FB689A4226D1BB699B00FB600F22A7
:10053000FB6802FA03F3BB60BB68DB437A691340D4
:100540007B61FA69FB6802FA03F37A6913437B6102
:100550003B68DB78282B05D10122BB699A407B6878
:100560005A6108E03B68DB78482B04D10122BB6963
:100570009A407B681A61BB690133BB61BB69072B79
:10058000C3D97B687A691A603B681B88FF2B46D900
:100590007B685B687B610023BB613AE0BB69083321
:1005A000012202FA03F3FB603B681B881A46FB68D2
:1005B00013403B613A69FB689A4227D1BB699B00B3
:1005C000FB600F22FB6802FA03F3BB60BB68DB43EE
:1005D0007A6913407B61FA69FB6802FA03F37A696E
:1005E00013437B613B68DB78282B05D1BB6908335B
:1005F00001229A407B685A613B68DB78482B05D121
:10060000BB69083301229A407B681A61BB690133D8
:10061000BB61BB69072BC1D97B687A695A6000BF8F
:100620002437BD4680BC704780B483B000AF78608B
:100630007B684FF6FF721A807B6802229A707B6893
:100640000422DA7000BF0C37BD4680BC704700BF83
:1006500080B485B000AF78600B467B800023FB73CD
:100660007B689A687B881340002B02D00123FB73C0
:1006700001E00023FB73FB7B18461437BD4680BCAA
:10068000704700BF80B483B000AF78600B467B80BA
:100690007A887B681A6100BF0C37BD4680BC704702
:1006A00080B483B000AF78600B467B807A887B682B
:1006B0005A6100BF0C37BD4680BC704780B483B020
:1006C00000AF0346FB71084997F907305B09FA79D7
:1006D00002F01F02012000FA02F241F8232000BFBD
:1006E0000C37BD4680BC704700E100E080B584B0A7
:1006F00000AF0121012000F03DF93B1D1846FFF736
:100700008DFD104B1B68104AA2FB03239B099BB273
:10071000013B9BB2BB804FF6FF733B8100237B8183
:100720000023FB803B1D19464FF08040FFF7FAFC89
:1007300001214FF08040FFF78BFD00BF1037BD4611
:1007400080BD00BF00000020D34D621080B500AF17
:1007500000214FF08040FFF77BFD0021012000F0D9
:1007600009F900BF80BD00BF80B584B000AF7860DC
:10077000FFF7BCFF4FF080439B8C9BB2FB6000E017
:1007800062B64FF080439B8C9BB21A46FB68D21A2C
:100790007B689A42F4D9FFF7D9FF00BF1037BD46F6
:1007A00080BD00BF80B500AF4FF6FF710248FFF774
:1007B00069FF00BF80BD00BF0008014080B500AFE9
:1007C00001213248FFF788FD4FF480713048FFF770
:1007D0003FFF0346002B41D13220FFF7C5FF4FF406
:1007E00080712B48FFF734FF0346002B36D1294B8D
:1007F0001B680133274A1360264B1B68022B03D169
:1008000001212548FFF74CFF224B1B68042B03D125
:1008100002212148FFF744FF1E4B1B68062B03D122
:1008200004211D48FFF73CFF1A4B1B68082B03D11E
:1008300008211948FFF734FF164B1B68082B04DD0D
:100840004FF6FF711448FFF72BFF00BF4FF4807184
:100850000F48FFF7FDFE0346002BF7D04FF4007161
:100860000B48FFF7F5FE0346002B0DD1094B002284
:100870001A60FFF797FF00BF4FF400710448FFF7BD
:10088000E7FE0346002BF7D000BF80BD0004004008
:10089000000C0140140000200008014080B582B027
:1008A00000AF0121082000F047F80121042000F0EA
:1008B00043F83B461846FFF7B7FE1023FB704FF690
:1008C000FF733B800223BB703B4619461748FFF776
:1008D000EFFD4FF6FF711548FFF7D4FE3B1D18469C
:1008E000FFF7A2FE4823FB714FF6FF73BB80022384
:1008F000BB713B1D19460E48FFF7DAFD01210220AE
:1009000000F038F80B4B64221A850A4B64229A8552
:10091000012201210748FFF7BBFC01210548FFF731
:1009200097FC1D20FFF7CAFEFEE700BF000801404C
:10093000000C01400004004080B483B000AF786038
:100940000B46FB70FB78002B06D00949084B9A69CF
:100950007B6813438B6106E00549054B9A697B6808
:10096000DB4313408B6100BF0C37BD4680BC704732
:100970000010024080B483B000AF78600B46FB707B
:10098000FB78002B06D00949084BDA697B681343D2
:10099000CB6106E00549054BDA697B68DB43134010
:1009A000CB6100BF0C37BD4680BC704700100240D1
:1009B00000366E0100000000000000000102030488
:0409C0000607080915
:0400000508000000EF
:00000001FF
